:020000040800F2
:1000000000000320B14B00082D2200082F22000819
:1000100031220008332200083522000800000000C9
:10002000000000000000000000000000372200086F
:1000300039220008000000003B2200083D22000891
:10004000014C0008014C0008014C0008014C00085C
:10005000014C0008014C0008014C0008014C00084C
:10006000014C0008014C0008014C0008014C00083C
:10007000014C0008014C0008014C0008014C00082C
:10008000014C0008014C0008014C0008014C00081C
:10009000014C0008014C0008014C000845220008F2
:1000A000014C0008014C0008014C0008014C0008FC
:1000B000014C0008014C0008014C0008014C0008EC
:1000C000014C0008014C0008014C0008014C0008DC
:1000D000014C0008014C0008014C0008014C0008CC
:1000E000014C0008014C0008014C0008014C0008BC
:1000F000014C0008014C0008014C0008014C0008AC
:10010000014C0008014C0008014C0008014C00089B
:10011000014C0008014C0008014C0008014C00088B
:1001200051220008014C0008014C0008014C000855
:10013000014C0008014C0008014C0008014C00086B
:10014000014C0008014C0008014C0008014C00085B
:10015000014C0008014C0008014C0008014C00084B
:10016000014C0008014C0008014C0008014C00083B
:10017000014C0008014C0008014C00080000000080
:10018000014C0008014C0008014C0008014C00081B
:10019000014C0008014C0008014C0008014C00080B
:0C01A00061220008014C000871220008D8
:1001C00010B5054C237833B9044B13B10448AFF391
:1001D00000800123237010BDD00900200000000022
:1001E00054E8000808B5034B1BB103490348AFF3BB
:1001F000008008BD00000000D409002054E8000879
:1002000081F0004102E000BF83F0004330B54FEAC7
:1002100041044FEA430594EA050F08BF90EA020F34
:100220001FBF54EA000C55EA020C7FEA645C7FEAC7
:10023000655C00F0E2804FEA5454D4EB5555B8BFEA
:100240006D420CDD2C4480EA020281EA030382EA5B
:10025000000083EA010180EA020281EA0303362DED
:1002600088BF30BD11F0004F4FEA01314FF4801CC0
:100270004CEA113102D0404261EB410113F0004FD2
:100280004FEA03334CEA133302D0524263EB430389
:1002900094EA050F00F0A780A4F10104D5F1200E27
:1002A0000DDB02FA0EFC22FA05F2801841F1000182
:1002B00003FA0EF2801843FA05F359410EE0A5F156
:1002C00020050EF1200E012A03FA0EFC28BF4CF087
:1002D000020C43FA05F3C01851EBE37101F000453D
:1002E00007D54FF0000EDCF1000C7EEB00006EEB4A
:1002F0000101B1F5801F1BD3B1F5001F0CD34908D4
:100300005FEA30004FEA3C0C04F101044FEA44522A
:1003100012F5800F80F09A80BCF1004F08BF5FEAB1
:10032000500C50F1000041EB045141EA050130BD91
:100330005FEA4C0C404141EB0101013C28BFB1F5A3
:10034000801FE9D291F0000F04BF01460020B1FAEE
:1003500081F308BF2033A3F10B03B3F120020CDAC1
:100360000C3208DD02F1140CC2F10C0201FA0CF09F
:1003700021FA02F10CE002F11402D8BFC2F1200C04
:1003800001FA02F120FA0CFCDCBF41EA0C019040BA
:10039000E41AA2BF01EB0451294330BD6FEA040403
:1003A0001F3C1CDA0C340EDC04F11404C4F12002EE
:1003B00020FA04F001FA02F340EA030021FA04F300
:1003C00045EA030130BDC4F10C04C4F1200220FA57
:1003D00002F001FA04F340EA0300294630BD21FA95
:1003E00004F0294630BD94F0000F83F4801306BF5B
:1003F00081F480110134013D4EE77FEA645C18BF4F
:100400007FEA655C29D094EA050F08BF90EA020FE5
:1004100005D054EA000C04BF1946104630BD91EADD
:10042000030F1EBF0021002030BD5FEA545C05D1E0
:100430004000494128BF41F0004130BD14F580041F
:100440003CBF01F5801130BD01F0004545F0FE4193
:1004500041F470014FF0000030BD7FEA645C1ABFC8
:10046000194610467FEA655C1CBF0B46024650EAFF
:10047000013406BF52EA033591EA030F41F400212B
:1004800030BD00BF90F0000F04BF0021704730B5B1
:100490004FF4806404F132044FF000054FF0000186
:1004A00050E700BF90F0000F04BF0021704730B547
:1004B0004FF4806404F1320410F0004548BF40421C
:1004C0004FF000013EE700BF42004FEAE2014FEA71
:1004D00031014FEA02701FBF12F07F4393F07F4F4C
:1004E00081F06051704732F07F4208BF704793F04F
:1004F0007F4F04BF41F40021704730B54FF4607462
:1005000001F0004521F000411CE700BF50EA010264
:1005100008BF704730B54FF000050AE050EA01020D
:1005200008BF704730B511F0004502D5404261EB7D
:1005300041014FF4806404F132045FEA915C3FF4BE
:10054000D8AE4FF003025FEADC0C18BF03325FEA5B
:10055000DC0C18BF033202EBDC02C2F1200300FA0C
:1005600003FC20FA02F001FA03FE40EA0E0021FA31
:1005700002F11444BDE600BF70B54FF0FF0C4CF41F
:10058000E06C1CEA11541DBF1CEA135594EA0C0FD1
:1005900095EA0C0F00F0DEF82C4481EA030621EA0C
:1005A0004C5123EA4C5350EA013518BF52EA033547
:1005B00041F4801143F4801338D0A0FB02CE4FF0F9
:1005C0000005E1FB02E506F00042E0FB03E54FF029
:1005D0000006E1FB03569CF0000F18BF4EF0010E21
:1005E000A4F1FF04B6F5007F64F5407404D25FEA1D
:1005F0004E0E6D4146EB060642EAC62141EA5551D0
:100600004FEAC52040EA5E504FEACE2EB4F1FD0C11
:1006100088BFBCF5E06F1ED8BEF1004F08BF5FEA8F
:10062000500E50F1000041EB045170BD06F0004641
:1006300046EA010140EA020081EA0301B4EB5C04EE
:10064000C2BFD4EB0C0541EA045170BD41F48011E6
:100650004FF0000E013C00F3AB8014F1360FDEBF0B
:10066000002001F0004170BDC4F10004203C35DAE7
:100670000C341BDC04F11404C4F1200500FA05F36A
:1006800020FA04F001FA05F240EA020001F000420B
:1006900021F0004110EBD37021FA04F642EB060181
:1006A0005EEA430E08BF20EAD37070BDC4F10C04AB
:1006B000C4F1200500FA04F320FA05F001FA04F26F
:1006C00040EA020001F0004110EBD37041F100015B
:1006D0005EEA430E08BF20EAD37070BDC4F1200566
:1006E00000FA05F24EEA020E20FA04F301FA05F2CE
:1006F00043EA020321FA04F001F0004121FA04F276
:1007000020EA020000EBD3705EEA430E08BF20EA45
:10071000D37070BD94F0000F0FD101F0004640007F
:1007200041EB010111F4801F08BF013CF7D041EA01
:10073000060195F0000F18BF704703F00046520005
:1007400043EB030313F4801F08BF013DF7D043EAD6
:100750000603704794EA0C0F0CEA135518BF95EA8C
:100760000C0F0CD050EA410618BF52EA4306D1D113
:1007700081EA030101F000414FF0000070BD50EA32
:10078000410606BF1046194652EA430619D094EABC
:100790000C0F02D150EA013613D195EA0C0F05D1A6
:1007A00052EA03361CBF104619460AD181EA0301FA
:1007B00001F0004141F0FE4141F470014FF00000B2
:1007C00070BD41F0FE4141F4780170BD70B54FF04D
:1007D000FF0C4CF4E06C1CEA11541DBF1CEA1355CD
:1007E00094EA0C0F95EA0C0F00F0A7F8A4EB0504AF
:1007F00081EA030E52EA03354FEA013100F08880A6
:100800004FEA03334FF0805545EA131343EA12636E
:100810004FEA022245EA111545EA10654FEA002623
:100820000EF000419D4208BF964244F1FD0404F5DC
:10083000407402D25B084FEA3202B61A65EB030538
:100840005B084FEA32024FF480104FF4002CB6EBF5
:10085000020E75EB030E22BFB61A754640EA0C0075
:100860005B084FEA3202B6EB020E75EB030E22BFB5
:10087000B61A754640EA5C005B084FEA3202B6EBF6
:10088000020E75EB030E22BFB61A754640EA9C00B5
:100890005B084FEA3202B6EB020E75EB030E22BF85
:1008A000B61A754640EADC0055EA060E18D04FEA43
:1008B000051545EA16754FEA06164FEAC30343EAE3
:1008C00052734FEAC2025FEA1C1CC0D111F4801FB0
:1008D0000BD141EA00014FF000004FF0004CB6E7A9
:1008E00011F4801F04BF01430020B4F1FD0C88BF48
:1008F000BCF5E06F3FF6AFAEB5EB030C04BFB6EB53
:10090000020C5FEA500C50F1000041EB045170BD45
:100910000EF0004E4EEA113114EB5C04C2BFD4EB72
:100920000C0541EA045170BD41F480114FF0000EF6
:10093000013C90E645EA060E8DE60CEA135594EA72
:100940000C0F08BF95EA0C0F3FF43BAF94EA0C0F75
:100950000AD150EA01347FF434AF95EA0C0F7FF4EA
:1009600025AF104619462CE795EA0C0F06D152EA3E
:1009700003353FF4FDAE1046194622E750EA410622
:1009800018BF52EA43067FF4C5AE50EA41047FF433
:100990000DAF52EA43057FF4EBAE12E74A0011D2E5
:1009A00012F5001211D20DD56FF47873B3EB6252C9
:1009B0000ED44FEAC12343F0004343EA505323FAD5
:1009C00002F070474FF00000704750EA013002D14A
:1009D0004FF0FF3070474FF0000070474FEA410280
:1009E000B2F1E04324BFB3F5001CDCF1FE5C0DD98D
:1009F00001F0004C4FEAC0024CEA5070B2F1004FD7
:100A000040EB830008BF20F00100704711F0804FD9
:100A100021D113F13872BCBF01F00040704741F49E
:100A200080114FEA5252C2F11802C2F1200C10FAA2
:100A30000CF320FA02F018BF40F001004FEAC12386
:100A40004FEAD32303FA0CFC40EA0C0023FA02F32A
:100A50004FEA4303CCE77FEA625307D150EA013300
:100A60001EBF4FF0FE4040F44000704701F00040D0
:100A700040F0FE4040F40000704700BF53B94AB94F
:100A8000002908BF00281CBF4FF0FF314FF0FF3096
:100A900000F074B9ADF1080C6DE904CE00F006F871
:100AA000DDF804E0DDE9022304B070472DE9F047EA
:100AB000089D04468E46002B4DD18A42944669D942
:100AC000B2FA82F252B101FA02F3C2F1200120FA25
:100AD00001F10CFA02FC41EA030E94404FEA1C4873
:100AE000210CBEFBF8F61FFA8CF708FB16E341EA6F
:100AF000034306FB07F199420AD91CEB030306F1F5
:100B0000FF3080F01F81994240F21C81023E634415
:100B10005B1AA4B2B3FBF8F008FB103344EA0344B9
:100B200000FB07F7A7420AD91CEB040400F1FF33CE
:100B300080F00A81A74240F207816444023840EA0B
:100B40000640E41B00261DB1D4400023C5E9004344
:100B50003146BDE8F0878B4209D9002D00F0EF80C7
:100B60000026C5E9000130463146BDE8F087B3FAFA
:100B700083F6002E4AD18B4202D3824200F2F980E2
:100B8000841A61EB030301209E46002DE0D0C5E9E5
:100B9000004EDDE702B9FFDEB2FA82F2002A40F031
:100BA0009280A1EB0C014FEA1C471FFA8CFE012634
:100BB000200CB1FBF7F307FB131140EA01410EFBD8
:100BC00003F0884208D91CEB010103F1FF3802D27F
:100BD000884200F2CB804346091AA4B2B1FBF7F079
:100BE00007FB101144EA01440EFB00FEA64508D99C
:100BF0001CEB040400F1FF3102D2A64500F2BB80D9
:100C00000846A4EB0E0440EA03409CE7C6F1200727
:100C1000B34022FA07FC4CEA030C20FA07F401FA6D
:100C200006F31C43F9404FEA1C4900FA06F3B1FBF6
:100C3000F9F8200C1FFA8CFE09FB181140EA01415B
:100C400008FB0EF0884202FA06F20BD91CEB0101F8
:100C500008F1FF3A80F08880884240F28580A8F150
:100C600002086144091AA4B2B1FBF9F009FB1011A2
:100C700044EA014100FB0EFE8E4508D91CEB010140
:100C800000F1FF346CD28E456AD90238614440EAE3
:100C90000840A0FB0294A1EB0E01A142C846A64663
:100CA00056D353D05DB1B3EB080261EB0E0101FAEC
:100CB00007F722FA06F3F1401F43C5E90071002649
:100CC0003146BDE8F087C2F12003D8400CFA02FC9F
:100CD00021FA03F3914001434FEA1C471FFA8CFEAF
:100CE000B3FBF7F007FB10360B0C43EA064300FB9F
:100CF0000EF69E4204FA02F408D91CEB030300F13D
:100D0000FF382FD29E422DD9023863449B1B89B2F3
:100D1000B3FBF7F607FB163341EA034106FB0EF37C
:100D20008B4208D91CEB010106F1FF3816D28B4229
:100D300014D9023E6144C91A46EA004638E72E46F5
:100D4000284605E70646E3E61846F8E64B45A9D2ED
:100D5000B9EB020864EB0C0E0138A3E74646EAE75C
:100D6000204694E74046D1E7D0467BE7023B61440A
:100D700032E7304609E76444023842E7704700BF73
:100D800090F800F06DE9024520F007016FF0000CCB
:100D900010F0070491F820F040F049804FF0000473
:100DA0006FF00700D1E9002391F840F000F108004E
:100DB00082FA4CF2A4FA8CF283FA4CF3A2FA8CF386
:100DC0004BBBD1E9022382FA4CF200F10800A4FAED
:100DD0008CF283FA4CF3A2FA8CF3E3B9D1E9042341
:100DE00082FA4CF200F10800A4FA8CF283FA4CF378
:100DF000A2FA8CF37BB9D1E9062301F1200182FA32
:100E00004CF200F10800A4FA8CF283FA4CF3A2FA37
:100E10008CF3002BC6D0002A04BF04301A4612BA45
:100E2000B2FA82F2FDE8024500EBD2007047D1E948
:100E3000002304F00305C4F100004FEAC50514F0D7
:100E4000040F91F840F00CFA05F562EA05021CBFA8
:100E500063EA050362464FF00004A9E700000000C2
:100E600001F0FF01102A2BDB10F0070F08D010F85B
:100E7000013B013A8B422DD010F0070F42B3F6D15F
:100E8000F0B441EA012141EA014122F007047FF078
:100E900000070023F0E80256083C85EA010586EACF
:100EA000010685FA47F5A3FA87F586FA47F6A5FA0B
:100EB00087F68EB9EED1F0BC01F0FF0102F0070217
:100EC00032B110F8013B013A83EA010313B1F8D1C2
:100ED0000020704701387047002D06BF35460338A3
:100EE000073815F0010F07D1013015F4807F02BFDC
:100EF000013015F4C03F0130F0BC0138704700BF2D
:100F0000844641EA000313F003036DD1403A41D314
:100F100051F8043B40F8043B51F8043B40F8043BD3
:100F200051F8043B40F8043B51F8043B40F8043BC3
:100F300051F8043B40F8043B51F8043B40F8043BB3
:100F400051F8043B40F8043B51F8043B40F8043BA3
:100F500051F8043B40F8043B51F8043B40F8043B93
:100F600051F8043B40F8043B51F8043B40F8043B83
:100F700051F8043B40F8043B51F8043B40F8043B73
:100F800051F8043B40F8043B51F8043B40F8043B63
:100F9000403ABDD2303211D351F8043B40F8043B03
:100FA00051F8043B40F8043B51F8043B40F8043B43
:100FB00051F8043B40F8043B103AEDD20C3205D313
:100FC00051F8043B40F8043B043AF9D2043208D00B
:100FD000D2071CBF11F8013B00F8013B01D30B887D
:100FE00003806046704700BF082A13D38B078DD05B
:100FF00010F003038AD0C3F10403D21ADB071CBF2D
:1010000011F8013B00F8013B80D331F8023B20F896
:10101000023B7BE7043AD9D3013A11F8013B00F8CF
:10102000013BF9D20B7803704B7843708B78837057
:10103000604670474FF0FF3C06E000BF4FF0010CE8
:1010400002E000BF4FF0010C4DF804CD4FEA410C17
:101050007FEA6C5C4FEA430C18BF7FEA6C5C1BD0E4
:1010600001B050EA410C0CBF52EA430C91EA030F65
:1010700002BF90EA020F0020704710F1000F91EAC2
:10108000030F58BF994208BF90422CBFD8176FEA90
:10109000E37040F0010070474FEA410C7FEA6C5C5E
:1010A00002D150EA013C07D14FEA430C7FEA6C5C65
:1010B000D6D152EA033CD3D05DF8040B704700BF91
:1010C0008446104662468C461946634600E000BFDF
:1010D00001B5FFF7B7FF002848BF10F1000F01BDB1
:1010E0004DF808EDFFF7F4FF0CBF012000205DF87C
:1010F00008FB00BF4DF808EDFFF7EAFF34BF012001
:1011000000205DF808FB00BF4DF808EDFFF7E0FF99
:1011100094BF012000205DF808FB00BF4DF808EDEA
:10112000FFF7CEFF94BF012000205DF808FB00BF51
:101130004DF808EDFFF7C4FF34BF012000205DF833
:1011400008FB00BF4FEA410C7FEA6C5C02D150EA19
:10115000013C0AD14FEA430C7FEA6C5C02D152EAAF
:10116000033C02D14FF0000070474FF00100704780
:101170004FEA410212F5001215D211D56FF47873BF
:10118000B3EB625212D94FEAC12343F0004343EA62
:10119000505311F0004F23FA02F018BF404270473D
:1011A0004FF00000704750EA013005D111F00040C7
:1011B00008BF6FF0004070474FF00000704700BF5D
:1011C00000B585B000230093019302930393174861
:1011D000174A02604FF480324260836003610376F5
:1011E00080F820304FF08052C2624FF0006282627D
:1011F000C3600122C26180F83020436101F07CFCB1
:1012000068B90623009301230193002302936946E2
:10121000064801F087FD28B905B05DF804FB00F031
:1012200051FFEEE700F04EFFF6E700BFEC090020AB
:101230000020014030B589B0002303930493059347
:1012400006930793026803F1804303F590339A42B3
:1012500001D009B030BD04460025019503F58C335B
:101260005A6C42F480725A645A6C02F48072019291
:10127000019A02951A6B42F001021A631B6B03F08C
:1012800001030293029B402303930323049303A9C6
:101290000F4802F063F90F480F4B0360456085600B
:1012A000C5604FF4806303614FF4006343614FF402
:1012B00000538361C5610562456201F0F7FE18B90C
:1012C000044BA3639C63C4E700F0FCFEF8E700BF97
:1012D00000000240500A00201064024000B583B0B4
:1012E00000210191094B1A6B42F480021A631B6BB7
:1012F00003F480030193019B0A46382001F0FCFDB2
:10130000382001F031FE03B05DF804FB00380240E4
:1013100008B50848084B03604FF44033436002238C
:1013200083600023C36002F04BF800B908BD00F0F1
:10133000C9FEFBE7B00A002000B0024002680E4B75
:101340009A4200D0704700B583B000210191A3F507
:10135000F0431A6B42F400021A631B6B03F40003A0
:101360000193019B0A465A2001F0C6FD5A2001F064
:10137000FBFD03B05DF804FB00B002402DE9F04135
:1013800086B00023019302930393049305932D4B9E
:101390001B6813B106B0BDE8F0814FF00108294B7E
:1013A000C3F8008000260096274B9A6B42EA080299
:1013B0009A639B6B03EA08030093009B4FF63F037D
:1013C000019302270297032504950C24059401A993
:1013D0001E4802F0C3F8CDF80480029703960495E6
:1013E000059401A91A4802F0B9F848F2371301939D
:1013F000029703960495059401A9164802F0AEF8E9
:101400004FF683730193029703960495059401A9FF
:10141000114802F0A3F8C0230193029703960495A4
:10142000059401A90D4802F099F84CF20373019359
:10143000029703960495059401A9094802F08EF8D5
:10144000A8E700BFF00A0020003802400014024064
:10145000000802400018024000100240001C024038
:10146000000C024084B0019000230393019B064AC4
:1014700002FB03F3039302E0039B013B0393039BF3
:10148000002BF9D104B07047A08601002DE9F0418E
:1014900082B005460C464FF00008CDF804800126C6
:1014A0000E6008274F608E60C1F80C804FF48052A8
:1014B00003F024F83046FFF7D5FF0223236067606E
:1014C000A660C4F80C804FF480522146284603F0F1
:1014D00015F8032323606760A760C4F80C804FF4FD
:1014E00080522146284603F009F840F23123019347
:1014F000042323606760A660019BE3604FF4805281
:101500002146284602F0FAFF2A68536943F42D6306
:1015100043F00403536102B0BDE8F08110B588B018
:101520000023019302930393049305930693079377
:101530001A481B4A02600122426082600822C2608F
:1015400010220261402242614FF4C0728261C36185
:101550004FF4006303624FF4805343624FF400532F
:1015600083620223019307220292042103910492D1
:101570000322059206930793694402F09FFF50B936
:10158000064C01A9204602F099FF06492046FFF7C4
:101590007DFF08B010BD00F095FDF1E7040B0020C1
:1015A000400100A0F40A002008B5FFF7E7FE08BDDF
:1015B00070B58EB0002409940A940B940C940D9489
:1015C0000094404B1A6B42F480721A631A6B02F457
:1015D00080720092009A01941A6B42F020021A6302
:1015E0001A6B02F020020192019A02941A6B42F0E7
:1015F00080021A631A6B02F080020292029A03942C
:101600001A6B42F004021A631A6B02F0040203928E
:10161000039A04941A6B42F001021A631A6B02F0E7
:1016200001020492049A05941A6B42F002021A63B2
:101630001A6B02F002020592059A06941A6B42F0A8
:1016400040021A631A6B02F040020692069A07944F
:101650001A6B42F010021A631A6B02F01002079222
:10166000079A08941A6B42F008021A631B6B03F086
:1016700008030893089B144E01224FF40051304692
:1016800002F06AF84FF4807309934FF488130A93B9
:1016900001250B9509A90D4801F060FF4FF4005397
:1016A00009930A950B950C9409A9304601F056FF51
:1016B00022462146172001F01FFC172001F054FCA0
:1016C0000EB070BD00380240000C02400020024005
:1016D00070B598B00446002113911491159116919C
:1016E0001791302207A804F0D7FC22684A4B9A428F
:1016F00001D018B070BD08230793B4230B930623C1
:101700000D934FF48033109307A802F095FD002845
:101710007ED100240194414B5A6C42F080625A649D
:101720005A6C02F080620192019A02941A6B42F4A0
:1017300080721A631A6B02F480720292029A039406
:101740001A6B42F020021A631A6B02F02002039215
:10175000039A04941A6B42F002021A631A6B02F0A5
:1017600002020492049A05941A6B42F080021A63F2
:101770001A6B02F080020592059A06941A6B42F0E9
:1017800040021A631B6B03F040030693069B40F272
:10179000F763139302251495159416940E26179645
:1017A00013A91F4801F0DAFE4FF4806313931495D8
:1017B00015941694179613A91A4801F0CFFE1395A5
:1017C0001495159416940923179313A9164801F03C
:1017D000C5FE4FF46E431393149515941694179603
:1017E00013A9124801F0BAFE4FF40C631393149539
:1017F00015941694179613A90D4801F0AFFE2246D2
:101800002146582001F078FB582001F0ADFB70E72D
:1018100000F058FC7DE700BF00680140003802403E
:10182000002002400014024000040240001C02405C
:1018300000180240044B4FF05042DA6002229A60D6
:101840001A7400225A747047380B0020214B9B6891
:10185000022B06D0032B13D0042B28D01D4B18606D
:101860007047C0F30F2303F47843C0F34F1202F420
:10187000FC62C0F3C40013430343164A136070476D
:1018800010F07F4F10D10022C0F34F2101F4F84136
:10189000C0F38F1303F47873C0F3C4000A431343F7
:1018A00003430C4A136070474FF40042ECE7020C0C
:1018B00002F47042C0F30F3101F47061C0F30F23E2
:1018C00003F0F003C0F303100A4313430343014A38
:1018D00013607047380B0020214B9B68022B06D009
:1018E000032B13D0042B28D01D4B58607047C0F336
:1018F0000F2303F47843C0F34F1202F4FC62C0F3E9
:10190000C40013430343164A5360704710F07F4FDF
:1019100010D10022C0F34F2101F4F841C0F38F131E
:1019200003F47873C0F3C4000A43134303430C4A1F
:10193000536070474FF40042ECE7020C02F470422F
:10194000C0F30F3101F47061C0F30F2303F0F00313
:10195000C0F303100A4313430343014A5360704723
:10196000380B0020014B1860704700BF4C0B002063
:10197000014B9874704700BF380B0020104B1A6859
:1019800022F001021A604FF440321A600D4A916849
:10199000596300211964D168D9630B4959645268AD
:1019A0009A630A4B9B6C012BFBD1054A136843F0E9
:1019B00001031360024B1B6813F0010FFAD170474B
:1019C00000B00240380B00201001E0010068014027
:1019D00010B4314CA368D3B9A47C54B92E4BDB6846
:1019E000C1EB011100EB411043F820205DF8044BDE
:1019F0007047012CFAD1284BDB68C0F587700130A5
:101A0000C0EB001001EB401143F82120EEE7012B61
:101A10000BD0214B9C7C84BBDB68C1EB011100EB3C
:101A2000411092B223F81020E0E71B4B9B7C7BB95E
:101A3000194BDC68C1EB011100EB411000EB4000D9
:101A400091B22152DB681844C2F307428270CDE79D
:101A5000012BCBD1104CE368C0F587700130C0EB8F
:101A6000001001EB401101EB410190B25852E368C4
:101A70001944C2F307428A70B8E7012CB6D1064B6D
:101A8000DC68C0F587730133C3EB031301EB43112B
:101A900092B224F81120A9E7380B00202DE9F04775
:101AA00080460F46A2F1200A5FFA8AFA04464FF0F8
:101AB000000924E0184B5A6839462046FFF788FF92
:101AC00076080134A4B2A4EB0802144B1B689B886F
:101AD0009A420DD00135ADB2072D0CD816F0010F8A
:101AE000E8D00D4B1A6839462046FFF771FFE7E74B
:101AF0000137BFB2444609F101091FFA89F9074BC2
:101B00001A6813894B4505D9126803FB0A93D65C02
:101B10000025E1E7BDE8F087380B00204C0B0020E2
:101B200070B504460E46154609E031462046FFF7DB
:101B3000B5FF064B1B6898880444A4B20135B4F580
:101B4000F07F02D22A78002AEFD170BD4C0B002022
:101B5000014BD874704700BF380B002000B58FB020
:101B60003422002101A804F097FA3148314B036078
:101B7000002343608360C3600361436183612B2260
:101B8000C2610C22026240F20B2242624FF48E725A
:101B9000826240F21322C2624FF49272026380F8B2
:101BA000343080F8353080F8363001F0C5FE00283A
:101BB00037D1002201924FF4F071029103924FF459
:101BC0008873049302200590FF20069007924FF43B
:101BD00080600890052009904FF050400A900B91CA
:101BE0000C938DF834208DF835208DF8362001A91E
:101BF0000F4801F08BFFB8B90020FFF7B9FE0E487F
:101C0000FFF7B0FE0120FFF7A3FF0020FFF712FE51
:101C10004FF07F40FFF760FEFFF7B0FE0FB05DF8BA
:101C200004FB00F04FFAC4E700F04CFAE4E700BF11
:101C3000500B0020006801400C0000202DE9F04FFF
:101C400085B0A2EB000ABAF1000FB8BFCAF1000AD2
:101C50000FFA8AFAA3EB010BBBF1000FB8BFCBF16F
:101C6000000B0FFA8BFB04B20EB2824213D3012297
:101C700002928B4213D301230393DA4513DB0AEB61
:101C8000DA7848F34F08029B0093002302930193F4
:101C90004FF000091EE04FF0FF320292E9E74FF0EB
:101CA000FF330393E9E70BEBDB7848F34F08534628
:101CB000DA469B46039B0193002303930093E7E7D7
:101CC000009B1C4424B2019B1E4436B209F1010959
:101CD0000FFA89F9CA4519DBA7B2B5B20D4B1A68DC
:101CE00029463846FFF774FED8441FFA88F30FFAE6
:101CF00088F8C245E4DCA3EB0A030FFA83F8029BE1
:101D0000FC1824B2039B1D442EB2D9E705B0BDE8F0
:101D1000F08F00BF380B0020134B834200D0704778
:101D200010B5124B01221A80002414E0104B33F836
:101D30001400FEF7B7FB0AA3D3E90023FEF71CFC4F
:101D400000220C4BFEF718FCFEF748FE0A4B03EB93
:101D5000840318600134094B1B8AA342E6DC10BDE2
:101D60006666666666660A40EC090020806C0020A4
:101D7000100C00200000303F2C2C00202C4C0020A8
:101D800008B54FF40061054803F0B6F8044B002293
:101D90001A80044802F0FCFB08BD00BF2C4C002058
:101DA000806C0020886C0020B94B1B88012B01D06F
:101DB000002070472DE9F0412DED028B82B0B54C2B
:101DC000B54E00232246B549304603F079F9328AF0
:101DD000B34D52082946204603F050FD318A490888
:101DE000B04FB14E3B4632460139281D02F050FF3C
:101DF0003B6801333B605A00013204EB82021768F2
:101E000004EBC3042068FEF75FFB41EC180B384677
:101E1000FEF75AFBB0EE481AF0EE681A41EC100BD0
:101E20000AF08EF951EC100BFEF7D8FD9F4B1860AD
:101E300000232B60D6ED006ADFED9D7A86EEA77A4F
:101E4000012300E00133944A128AB3EB520F0FDAF8
:101E5000934A02EB8302D2ED007AF4EEC77AF1EEF8
:101E600010FAEFD58E4A02EB830200211160E9E7F8
:101E70008C4B1868FEF706FB41EC100B0AF0DCF9FE
:101E800051EC100BFEF78AFD064601243EE0854D1D
:101E90002868671C04FB0000801B71004FEA84085F
:101EA00005EB8403804A02EB84020131DFF8F0C1C4
:101EB0000CEB800002F0ECFE2B6807FB03F39B1B8E
:101EC00055F82420134445F824305A000132714952
:101ED00001EB8202146801EBC3031868FEF7F4FA01
:101EE00041EC180B2046FEF7EFFAB0EE481AF0EE80
:101EF000681A41EC100B0AF023F951EC100BFEF7B5
:101F00006DFD6A4B9844C8F800003C46042CBEDDC9
:101F1000644B1E68B608002427E0624B53F8243057
:101F20009B1B7100A700DFF8908108EB84052A460F
:101F300001315B4800EB830002F064FE2868FEF785
:101F4000C3FA41EC100B0AF077F951EC100BFEF7D5
:101F500045FD07EE900A2860D8ED006A87EEA67A64
:101F6000544B3B4483ED007A0134032CD5DD4A4BBE
:101F7000198A4C4D2869331A03EB5103013B710058
:101F80000131801B4C4C04F11002994228BF1946C4
:101F9000434B03EB800002F035FE2069FEF794FA14
:101FA00041EC100B0AF048F951EC100BFEF716FD4E
:101FB00007EE900A2061D4ED006A87EEA67A3D4CC8
:101FC00084ED047A9FED308B6068FEF77DFAB0EE09
:101FD000481AF0EE681A41EC100B0AF0B5F857EC0D
:101FE000106BA068FEF770FAB0EE481AF0EE681AAF
:101FF00041EC100B0AF0A8F853EC102B3046394690
:10200000FEF704F906460F46E068FEF75DFAB0EE0B
:10201000481AF0EE681A41EC100B0AF095F853ECF0
:10202000102B30463946FEF7F1F806460F46206978
:10203000FEF74AFAB0EE481AF0EE681A41EC100BBF
:102040000AF082F853EC102B30463946FEF7DEF8E2
:1020500041EC100B0AF0F0F851EC100BFEF7BEFC4F
:1020600000EE100A154B18600094104B2A460B49DD
:10207000134800F0C1FA064B00221A80012002B07A
:10208000BDEC028BBDE8F0810000000000000040C4
:10209000806C0020444C00202C4C00202C2C002074
:1020A000241C0020446C0020101C00206C6C0020BC
:1020B0000000C842586C0020F80B00200C0C0020D7
:1020C000242C002072B6FEE700B595B03022002126
:1020D00008A803F0E1FF00230393049305930693FC
:1020E00007930193234A116C41F080511164126CE3
:1020F00002F080520192019A02931F4B1A6842F437
:1021000040421A601B6803F440430293029B012380
:1021100008934FF48033099302230E934FF4800207
:102120000F9210221092D82211921293042313932B
:1021300008A801F05DFDB0B901F01CFDA8B90F239E
:10214000039302230493002305934FF4A0530693B3
:102150004FF480530793052103A801F097FF30B98E
:1021600015B05DF804FBFFF7ADFFFFF7ABFFFFF71E
:10217000A9FF00BF003802400070004008B500F021
:1021800093FBFFF7A1FFFFF713FA00F02BF900F024
:1021900043F9FFF7C3F9FFF7E1FCFFF79FF8FFF7FB
:1021A0000FF8FFF7B5F800F0CDF8172388220021CB
:1021B0000D4800F0CDF9FFF7E3FDFFF7DFFB4FF42B
:1021C00000620A490A4800F0DFFCFFF7EDFD002835
:1021D000FBD04FF47A7000F093FB4FF40062034998
:1021E000034800F0D1FCF0E7242C0020100C002064
:1021F000EC09002082B0002100910B4B5A6C42F494
:1022000080425A645A6C02F480420092009A019112
:102210001A6C42F080521A641B6C03F080530193D5
:10222000019B02B0704700BF00380240FEE7FEE7A6
:10223000FEE7FEE7FEE770477047704708B500F01D
:102240004DFB08BD08B54FF4807001F08DFA08BD54
:1022500008B5024800F0C6FF08BD00BF500A0020C4
:1022600008B5024801F0E5FB08BD00BF500B002097
:1022700008B5024801F0D3F808BD00BFB00A00203D
:102280000120704708B503F0DDFE162303604FF010
:10229000FF3008BD08B54FF0FF31FFF7F3FFFEE751
:1022A00070B50C461646002506E0AFF300802146C7
:1022B00001F8010B01350C46B542F6DB304670BD26
:1022C00070B50C461646002504E014F8010B00F02A
:1022D00033F90135B542F8DB304670BD08B5034629
:1022E0000B4A126842B10A4A106803446A46934294
:1022F00006D8074A136008BD054A06491160F2E78F
:1023000003F0A0FE0C2303604FF0FF30F3E700BFA3
:10231000846C0020A86D00204FF0FF3070474FF410
:1023200000534B6000207047012070470020704729
:10233000034AD2F8883043F47003C2F888307047FB
:1023400000ED00E000B587B00023029303930493EF
:102350000593009301931548154A026008224260D4
:102360008360C26003618023836102F0B3F998B98E
:102370004FF48053029302A90C4802F0E4F970B9BB
:1023800020230093002301936946084802F05AFA7B
:1023900040B907B05DF804FBFFF794FEE8E7FFF7EC
:1023A00091FEEDE7FFF78EFEF3E700BF886C00209B
:1023B000000400400268094B9A4200D0704782B086
:1023C00000230193064B1A6C42F002021A641B6C44
:1023D00003F002030193019B02B070470004004028
:1023E0000038024008B50A480A4B03604FF4E13355
:1023F000436000238360C36003610C2242618361F8
:10240000C36102F0EDFA00B908BDFFF75BFEFBE720
:10241000D06C00200010014008B50A480A4B036048
:102420004FF4E133436000238360C36003610C22F7
:1024300042618361C36102F0D3FA00B908BDFFF7BE
:1024400041FEFBE7146D002000440040F0B58BB066
:102450000023059306930793089309930368314A71
:10246000934204D0304A934225D00BB0F0BD0021F6
:1024700000912E4B5A6C42F010025A645A6C02F0D2
:1024800010020092009A01911A6B42F001021A6345
:102490001B6B03F001030193019B4FF4C063059391
:1024A00002230693032308930723099305A92048D1
:1024B00001F054F8D9E7002402941C4B1A6C42F442
:1024C00000321A641A6C02F400320292029A0394E7
:1024D0001A6B42F001021A631A6B02F001020392B6
:1024E000039A04941A6B42F008021A631B6B03F000
:1024F00008030493049B04230593022706970326ED
:1025000008960725099505A9094801F027F84023F1
:102510000593069707940896099505A9054801F0C3
:102520001DF8A2E7001001400044004000380240BE
:1025300000000240000C0240044B1B6813F0400FE7
:10254000FAD0C2B2014B5A60704700BF0010014080
:10255000018042808380704770B50546254C204637
:10256000FFF774F928886988013989B200F5F0729B
:102570000B4692B2FFF762FB28886988023989B25C
:1025800000F5F0720B4692B2FFF758FB2046FFF7BA
:102590005DF90026052E1BDC28886988AB88B4B25B
:1025A00013FB06F3C91A89B200F5F0720B4692B21A
:1025B000FFF744FB28886988AB8814FB031189B2B4
:1025C00000F5F0720B4692B2FFF738FB0136E1E7F7
:1025D00000240CE0288804EB840200EBC20080B2E7
:1025E0004FF4887302460021FFF728FB01340B2CBF
:1025F000F0DD70BDA3A3A3FF2DE9F04F2DED028BFD
:10260000ADF2A47D83468DED010ADDF8D0A74FF42D
:10261000F062002108A803F03FFD00250395049512
:1026200005950695079541E00AEB840393ED007A42
:10263000DFED817A67EE277A17EE900AFDF744FF07
:1026400006460F462846FDF72DFF79A3D3E9002360
:10265000FDF792FF0022794BFEF7B8F880468946D5
:1026600001342046FDF71EFF42464B46FDF784FF2E
:1026700041EC100B09F01CFD53EC102B3046394691
:10268000FDF77AFF06460F4608AB03EB8508D8F83E
:102690000000FDF719FF32463B46FDF7B7FDFEF798
:1026A0009DF9C8F80000042CBEDD0135B5F5F07FBA
:1026B00001DA0024F7E7FFF761F95846FFF74CFF0E
:1026C0006FF0FF00FFF7C2F80023B3F5F07F43DAA5
:1026D0005C1C9DB2BBF8022007EE902AF8EEE77A68
:1026E00008AA02EB830393ED008A37EEC87AA6B2FC
:1026F00002EB8403D3ED008A77EEE87AFCEEE77A0A
:10270000BCEEC77A17EE903A9BB2324617EE101A1B
:1027100089B22846FFF792FABBF8023007EE903AEA
:10272000F8EEE77A37EEC88AB7EE007A38EE478AD5
:1027300077EEE87A77EEC77AFCEEE77ABCEEC88AE5
:1027400017EE903A9BB2324618EE101A89B228461C
:10275000FFF774FA2346B8E73948FFF703F96FF437
:10276000FE40FFF773F80198FDF7AEFE02460B46F8
:10277000344903A803F0E2FC03AA0A214FF4B47021
:10278000FFF7CEF9DAF80000FDF79EFE02460B4691
:102790002D4903A803F0D2FC03AA1E214FF4B47004
:1027A000FFF7BEF9DAF80400FDF78EFE02460B468D
:1027B000264903A803F0C2FC03AA32214FF4B470E7
:1027C000FFF7AEF9DAF80800FDF77EFE02460B4689
:1027D0001F4903A803F0B2FC03AA46214FF4B470CA
:1027E000FFF79EF9DAF80C00FDF76EFE02460B4685
:1027F000184903A803F0A2FC03AA5A214FF4B470AD
:10280000FFF78EF9DAF81000FDF75EFE02460B4680
:10281000114903A803F092FC03AA6E214FF4B4708F
:10282000FFF77EF90DF2A47DBDEC028BBDE8F08FC1
:102830004AD8124DFB2119400000964200007E400C
:102840000000002048000108500001086000010855
:1028500070000108800001089000010810B50446CE
:102860000E4B18784FF47A73B3FBF0F30C4A1068F0
:10287000B0FBF3F000F086FB68B90F2C01D9012002
:102880000AE0002221464FF0FF3000F035FB054BF7
:102890001C60002000E0012010BD00BF1C000020D3
:1028A000180000202000002008B50B4B1A6842F4E5
:1028B00000721A601A6842F480621A601A6842F460
:1028C00080721A60032000F005FB0020FFF7C6FFAE
:1028D000FFF790FC002008BD003C0240034A11684D
:1028E000034B1B780B441360704700BF586D0020EA
:1028F0001C000020014B1868704700BF586D002075
:1029000038B50446FFF7F6FF0546B4F1FF3F02D0A5
:10291000044B1B781C44FFF7EDFF401BA042FAD389
:1029200038BD00BF1C000020704770477047000092
:102930004A4B5A6822F440325A605A6841680A4346
:102940005A600268536823F48073536002685368C6
:10295000016943EA012353600268536823F040731E
:1029600053600268536881680B4353600268936840
:1029700023F40063936002689368C1680B4393601B
:10298000826A374B9A4257D00268936823F070638B
:10299000936002689368816A0B439360026893684E
:1029A00023F04053936002689368C16A0B439360BD
:1029B0000268936823F00203936002689368017EC3
:1029C00043EA4103936090F82030002B3FD0026827
:1029D000536843F4006353600268536823F4604310
:1029E000536001684B68426A013A43EA42334B60E4
:1029F0000268D36A23F47003D3620168CB6AC269A8
:102A0000013A43EA0253CB620268936823F40073ED
:102A100093600268936890F8301043EA4123936012
:102A20000268936823F48063936002689368416945
:102A300043EA8123936070470268936823F07063D0
:102A400093600268936823F040539360B0E7026894
:102A5000536823F400635360CAE700BF00230140BA
:102A60000100000F08B50346806B026C12F0500F96
:102A700025D1036C43F40073036403689A6812F071
:102A8000405F19D1027EBAB9DA6A12F4700F03D02E
:102A90009A6812F4806F0FD15A6822F020025A60AF
:102AA000036C23F480730364036C13F4805F03D11D
:102AB000036C43F001030364836C984708BD026C08
:102AC00012F0100F02D0436D9847F7E7826BD26C7B
:102AD00018469047F2E708B5806BC36C984708BD6D
:102AE00008B5806B40230364436C43F004034364E4
:102AF000436D984708BD0000002836D010B5044645
:102B0000036C93B91A4B83641A4BC3641A4B036565
:102B10001A4B43651A4B8365C36D7BB1E36D204649
:102B200098470023636484F83C30236C13F0100F43
:102B300007D00120002384F83C3010BD114BC36541
:102B4000ECE7236C23F4885323F0020343F00203E1
:102B500023642046FFF7ECFE00206064236C23F022
:102B6000030343F001032364E4E70120704700BF3F
:102B7000191D0008292900082B2900082D29000803
:102B8000D12E00083512000810B582B0134600227D
:102B9000019290F83C20012A00F0AE800446012208
:102BA00080F83C200268906810F0010F13D1906803
:102BB00040F001009060534A1068534AA2FB002085
:102BC000800C00EB4000019002E001980138019078
:102BD00001980028F9D12268906810F4807F03D012
:102BE000906820F4807090602268906810F0010F67
:102BF00077D0206C20F4E06020F0010040F4807079
:102C00002064526812F4806F05D0226C22F4405286
:102C100042F480522264226C12F4805F36D0626CDF
:102C200022F006026264002284F83C20A26B37483E
:102C3000D063A26B36481064A26B3648D064226819
:102C40006FF0220010602068426842F080624260AB
:102C50002068826842F48072826020680A4600F12F
:102C60004C01A06B00F088FA2B4B5B6813F01F0F30
:102C700027D12368294A934211D002F580729342EA
:102C800007D0274A934214D0002033E00022626428
:102C9000C9E702F50072526812F01F0FF1D19A686D
:102CA00012F0405F2AD19A6842F080429A60002078
:102CB00020E002F58072526812F0100FEFD0002071
:102CC00018E02368154A934201D0002012E09A6868
:102CD00012F0405F14D19A6842F080429A6000205E
:102CE00008E0236C43F010032364636C43F001039A
:102CF0006364002002B010BD0220FBE70020F9E76A
:102D00000020F7E71800002083DE1B43652A000837
:102D1000D72A0008E12A00080023014000200140D2
:102D20000022014030B482B00023019390F83C307F
:102D3000012B00F0C080012380F83C300B68092B88
:102D400041D90468E2689BB203EB43031E3B4FF09A
:102D5000070C0CFA03F322EA0303E3600468E26859
:102D60000B8803EB43031E3B8D6805FA03F3134303
:102D7000E3604B68062B3DD80468626B03EB83036A
:102D8000053B4FF01F0C0CFA03F322EA03036363C5
:102D90000468626B4B6803EB8303053BB1F800C02A
:102DA0000CFA03F3134363630268444B9A4251D015
:102DB0000268424B9A425AD0002380F83C301846B1
:102DC00002B030BC7047046822699BB203EB430336
:102DD0004FF0070C0CFA03F322EA030323610468A3
:102DE00022690B8803EB43038D6805FA03F3134351
:102DF0002361BEE70C2B16D805682A6B03EB83030F
:102E0000233B1F2404FA03F322EA03032B63056820
:102E10002A6B4B6803EB8303233B0C8804FA03F310
:102E200013432B63C0E70568EA6A03EB8303413B66
:102E30001F2404FA03F322EA0303EB620568EA6A3B
:102E40004B6803EB8303413B0C8804FA03F3134301
:102E5000EB62A9E70B68122BAAD1194B5A6822F42E
:102E600000025A605A6842F480025A60A0E70B6878
:102E7000144A934201D0112B9ED1114B5A6822F46F
:102E800080025A605A6842F400025A600A680D4B88
:102E90009A4291D10C4B1B680C4AA2FB03239B0C5A
:102EA00003EB83035B000193019B002B84D0019B08
:102EB000013B0193F8E7022082E700BF00200140B8
:102EC00000230140120000101800002083DE1B4385
:102ED00070470000074AD36823F4E0631B041B0C0F
:102EE000000200F4E060034343F0BF6343F40033A7
:102EF000D360704700ED00E000B5194BDB68C3F309
:102F00000223C3F1070CBCF1040F28BF4FF0040CDF
:102F100003F1040EBEF1060F18D9033B4FF0FF3E3C
:102F20000EFA0CFC21EA0C0199400EFA03F322EA96
:102F30000303194300280BDB0901C9B200F160400B
:102F400000F5614080F800135DF804FB0023E5E71D
:102F500000F00F000901C9B2024B1954F4E700BF99
:102F600000ED00E014ED00E0002807DB00F01F0298
:102F7000400901239340024A42F82030704700BFC5
:102F800000E100E00138B0F1807F0BD24FF0E02388
:102F90005861054AF02182F8231000209861072229
:102FA0001A6170470120704700ED00E030B40568F9
:102FB0002C6824F480242C60046863608368402BB0
:102FC00005D0036899600368DA6030BC7047036815
:102FD0009A600368D960F8E710B40368D9B2103971
:102FE0000C4AA2FB014212090B4CA25CC2655F298C
:102FF00009D923F47F7323F0030304338365806DC1
:103000005DF8044B704723F47F7323F0030383655B
:10301000F5E700BFABAAAAAAA0000108836A8269EB
:1030200092B9012B0AD0022B02D00BB100207047BD
:10303000C36A13F0807F28D100207047C36AB3F1C0
:10304000C07F24D000207047B2F5005F09D0022B6A
:1030500025D9032B25D1C36A13F0807F23D100200B
:103060007047032B03D8DFE803F01404140A002090
:103070007047C36A13F0807F0DD100207047C36A88
:10308000B3F1C07F09D000207047012070470120B4
:1030900070470120704701207047012070470120D0
:1030A00070470020704701207047000070B504464B
:1030B000FFF720FC002C5BD00546022384F8353056
:1030C000002384F834302268136823F0010313606E
:1030D00023681A6812F0010F0AD0FFF70BFC431B9C
:1030E000052BF5D920236365032084F8350070BDD6
:1030F0001A68204810406168A2680A43E1680A43E0
:1031000021690A4361690A43A1690A43E1690A43E3
:10311000216A0A430243616A04291ED01A602668A4
:10312000756925F00705636A1D43042B07D1A36A5F
:103130001D43E36A1BB12046FFF770FF90B975612C
:103140002046FFF749FFE26D3F2393408360002054
:103150006065012384F83530C9E7E16A206B0143DB
:103160000A43DBE740236365012084F83500BEE7AE
:103170000120BCE73F8010F038B50446856D90F81B
:10318000340001282BD0012084F8340094F8350055
:10319000C0B2012804D0002384F83430022038BDA6
:1031A000022084F83500002060652046FFF7FEFE0F
:1031B000E26D3F239340AB602268136843F016032F
:1031C0001360236C23B12268136843F00803136073
:1031D0002268136843F0010313600020DFE7022038
:1031E000DDE70000F0B583B0044600230193724B85
:1031F0001D68724BA3FB0535AD0A876D3E68C26D35
:1032000008239340334210D003681A6812F0040F69
:103210000BD01A6822F004021A60C26D0823934092
:10322000BB60436D43F001034365E26D01239340AE
:10323000334209D02268526912F0800F04D0BB607B
:10324000636D43F002036365E26D042393403342F0
:1032500009D02268126812F0020F04D0BB60636DBF
:1032600043F004036365E26D10239340334224D09E
:103270002268126812F0080F1FD0BB6023681A681A
:1032800012F4802F0DD01B6813F4002F04D1236C8F
:103290009BB12046984710E0A36C73B12046984735
:1032A0000BE01A6812F4807F03D11A6822F008023A
:1032B0001A60236C0BB120469847E26D202393409F
:1032C000334255D02268126812F0100F50D0BB6004
:1032D00094F83530DBB2052B0ED023681A6812F44F
:1032E000802F33D01B6813F4002F2AD1636C002B7E
:1032F0003ED0204698473BE02268136823F016032F
:1033000013602268536923F080035361236CA3B1D7
:103310002268136823F008031360E26D3F23934093
:10332000BB60012384F83530002384F83430236DEA
:10333000002B3FD0204698473CE0A36C002BE7D100
:10334000EBE7E36BA3B12046984711E01A6812F44B
:10335000807F09D11A6822F010021A60012384F8D4
:103360003530002384F83430E36B0BB120469847A6
:10337000636DFBB1636D13F0010F17D0052384F863
:1033800035302268136823F001031360019B013379
:103390000193AB4204D823681B6813F0010FF5D1E9
:1033A000012384F83530002384F83430E36C0BB10A
:1033B0002046984703B0F0BD18000020B5814E1B91
:1033C00048B310B5044690F83930FBB1022384F8B5
:1033D00039302268136823F4403361680B4313606B
:1033E0002268536B23F00703A1680B4353632268E1
:1033F000136C23F47F5323F03F03E1680B43136402
:103400000020E063012384F8393010BD80F83830A3
:10341000FDF794FFDAE7012070477047704770B5F9
:10342000044603685D681E6815F0010F16D016F497
:10343000807F13D01A6822F480721A60C36B43F045
:103440000103C363036801229A60042380F83930C2
:10345000002380F83830436903B1984715F0200FF6
:1034600018D016F4005F15D02268136823F40053B7
:103470001360236820229A60E36B43F00203E36346
:10348000042384F83930002384F8383063690BB1A1
:103490002046984715F0080F18D016F4006F15D085
:1034A0002268136823F400631360236808229A607B
:1034B000E36B43F00403E363042384F8393000230F
:1034C00084F8383063690BB12046984715F0040F33
:1034D00002D016F4806F20D115F0020F16D016F42A
:1034E000007F13D02268136823F4007313602368ED
:1034F00002229A60E36BE363012384F839300023EE
:1035000084F8383023690BB12046984715F0100F26
:1035100002D016F4805F0CD170BD2268136823F4CA
:1035200080631360236804229A602046FFF775FFCA
:10353000D2E72268136823F48053136023681022B3
:103540009A60E36BE363012384F83930002384F845
:1035500038302046FFF762FFDEE7000000230F2B24
:1035600000F2F18070B582B061E085685E000324EE
:10357000B44025EA0405CC68B4402C438460456817
:1035800025EA02054C68C4F300129A402A434260BF
:103590005BE0DC08083450F8246003F00702950073
:1035A0000F22AA4026EA020E0A69AA4042EA0E0247
:1035B00040F824205DE0092200E0002202FA0EF229
:1035C0002A430234604D45F82420604A14686FEAAB
:1035D0000C0224EA0C054E6816F4803F01D04CEA38
:1035E00004055A4C2560646802EA04054E6816F426
:1035F000003F01D04CEA0405544C6560A46802EA1F
:1036000004054E6816F4801F01D04CEA04054F4CA7
:10361000A560E46822404D6815F4001F01D04CEA13
:1036200004024A4CE26001330F2B00F28A8001222F
:103630009A400C6804EA020C32EA0404F3D14C68A4
:1036400004F00304013C012C8FD94A6802F0030204
:10365000032A09D0C4685D000322AA4024EA0204B8
:103660008A68AA402243C2604A6802F00302022A22
:103670008FD004684FEA430E032202FA0EF224EAC6
:1036800002044A6802F0030202FA0EF222430260C8
:103690004A6812F4403FC6D0002201922C4A546C72
:1036A00044F480445464526C02F480420192019AC2
:1036B0009C08A51C244A52F8255003F003024FEA47
:1036C000820E0F2202FA0EF225EA0205214A9042EA
:1036D0003FF473AF02F58062904222D002F580621F
:1036E000904220D002F5806290421ED002F58062A6
:1036F00090421CD002F5806290421AD002F580629E
:10370000904218D002F58062904216D002F5806295
:10371000904214D002F5806290423FF44CAF0A22EE
:103720004CE701224AE7022248E7032246E7042247
:1037300044E7052242E7062240E707223EE7082247
:103740003CE702B070BD704700380140003C0140CA
:1037500000380240000002400AB18161704709044C
:10376000816170477047000008B5054B5B690342F3
:1037700000D108BD024B5861FFF7F4FFF9E700BF25
:10378000003C0140F0B54D680468E368C3F30B43A7
:103790001D444FEAC21C04EBC214D4F8883003F471
:1037A0007043C4F888300B680468E668C6F30B46BB
:1037B0003344013304EBC21443EA0543C4F88830B0
:1037C000CD680468E368C3F30A031D4404EBC21E1A
:1037D000DEF88C3003F47043CEF88C308B680468CC
:1037E000E668C6F30A063344013304EBC21443EA25
:1037F0000543C4F88C30036803EBC213D3F894403C
:1038000024F00704C3F89440036803EBC2130C6967
:10381000C3F8944091F8317091F832508E69046881
:1038200004EBC21404F1840ED4F89C300024CEF8CA
:10383000184091F8303043EA072343EA054305680E
:1038400005EBC21543EA0663C5F89C30036803EB39
:10385000C213D3F8985025F0FF05C3F898500368B9
:1038600003EBC2134D69C3F89850036803EBC2130E
:10387000D3F8A05025F4E06525F00705C3F8A05063
:103880000D6A036803EBC213CE693543C3F8A05039
:10389000036803EBC213D3F8AC50C3F8AC40036821
:1038A00003EBC2124B6AC2F8AC300C696CB1012C4C
:1038B0003BD0042C3BD0022C08D0032C39D0072C51
:1038C00001D0012402E0022400E0042402686244E2
:1038D000D2F8B03003F0E023C2F8B0308B6A04FBBA
:1038E00003F54B680A689B1A04FB03F30333026871
:1038F000624443EA0543C2F8B03003686344D3F836
:10390000B42022F4FF6222F00702C3F8B420036857
:103910006344CA6AC3F8B42003689C44DCF884306A
:1039200043F00103CCF88430F0BD0324CEE7022439
:10393000CCE70224CAE70000002872D038B504465C
:1039400090F8A130002B67D0022384F8A1302268C0
:10395000936923F07043936121688A696368A06862
:103960000343E06803432069034313438B612168E9
:103970008A682D4B1A408A6020688268A16965694F
:1039800041EA05410A4382602168CA681A40CA6058
:103990002068C268216AE56941EA05410A43C260BC
:1039A00021680A691A400A6120680269A16A656A89
:1039B00041EA05410A43026121684A6913404B61AB
:1039C000E06A21684B69226B42EA004213434B6173
:1039D00094F8350094F836301B042168CA6A02F066
:1039E0007F42CA622168CA6A43EA002394F834001D
:1039F00003431343CB622268536B43F006035363C4
:103A00002268936943F0010393610020C4F8A40085
:103A1000012384F8A13038BD80F8A030FDF758FEAE
:103A200092E70120704700BF00F800F07047704730
:103A3000704770B5044603689D6B5E6B15F0040F0C
:103A400002D016F0040F12D115F0020F02D016F0BA
:103A5000020F21D115F0010F02D016F0010F32D163
:103A600015F0080F02D016F0080F3DD170BD5A6B4B
:103A700022F004025A6303680422DA63D0F8A43007
:103A800043F00103C0F8A43080F8A120002380F89F
:103A9000A030FFF7CBFFD7E72268536B23F0020378
:103AA000536323680222DA63D4F8A4301343C4F8C2
:103AB000A430042384F8A130002384F8A0302046E9
:103AC000FFF7B4FFC6E72268536B23F0010353638B
:103AD00022680123D36384F8A130002384F8A03046
:103AE0002046FFF7A4FFBBE72268536B23F00803CF
:103AF000536323680822DA63012384F8A13000238A
:103B000084F8A0302046FFF793FFAFE7F8B590F8B0
:103B1000A030012B2CD004460D461646012780F814
:103B2000A070022380F8A1304FF0340C0CFB020C83
:103B30000CF1380C8E46BEE80F00ACE80F00BEE872
:103B40000F00ACE80F00BEE80F00ACE80F00DEF895
:103B50000030CCF80030324629462046FFF712FEEE
:103B600023685F6284F8A170002084F8A000F8BD8B
:103B70000220FCE710B582B000230193194B1A6CA8
:103B800042F080521A641B6C03F080530193019B36
:103B9000154B01221A64FEF7ADFE0446134B5B6819
:103BA00013F4803F08D1FEF7A5FE001BB0F57A7F25
:103BB000F4D9032002B010BD0B4B01225A64FEF76A
:103BC00099FE0446094B5B6813F4003F07D1FEF7EA
:103BD00091FE001BB0F57A7FF4D90320EAE70020BC
:103BE000E8E700BF0038024000000E4200700040CD
:103BF000002800F0E08170B582B00446036813F03D
:103C0000010F3BD09F4B9B6803F00C03042B2CD07F
:103C10009C4B9B6803F00C03082B21D06368B3F521
:103C2000803F4FD0B3F5A02F52D0964B1A6822F4A4
:103C300080321A601A6822F480221A606368002BAE
:103C400050D0FEF757FE05468E4B1B6813F4003F1D
:103C500014D1FEF74FFE401B6428F5D90320B1E1D3
:103C6000884B5B6813F4800FD8D0864B1B6813F425
:103C7000003F03D06368002B00F09F81236813F09E
:103C8000020F54D07F4B9B6813F00C0F3ED07D4B3E
:103C90009B6803F00C03082B33D0E368002B68D03B
:103CA000794B01221A60FEF725FE0546754B1B680D
:103CB00013F0020F54D1FEF71DFE401B0228F5D968
:103CC00003207FE16F4A136843F480331360B5E744
:103CD0006C4B1A6842F480221A601A6842F48032EF
:103CE0001A60ABE7FEF706FE0546664B1B6813F449
:103CF000003FC3D0FEF7FEFD401B6428F5D903202A
:103D000060E1604B5B6813F4800FC6D15D4B1B68AC
:103D100013F0020F03D0E368012B40F05081594AA1
:103D2000136823F0F803216943EAC1031360236891
:103D300013F0080F42D063696BB3534B0122C3F8F1
:103D4000802EFEF7D7FD05464E4B5B6F13F0020F3A
:103D500034D1FEF7CFFD401B0228F5D9032031E115
:103D6000484A136823F0F803216943EAC10313604A
:103D7000DDE7454B00221A60FEF7BCFD0546414BCE
:103D80001B6813F0020FD2D0FEF7B4FD401B0228CF
:103D9000F5D9032016E13C4B0022C3F8802EFEF734
:103DA000A9FD0546374B5B6F13F0020F06D0FEF7F7
:103DB000A1FD401B0228F5D9032003E1236813F07D
:103DC000040F77D02F4B1B6C13F0805F33D100238F
:103DD00001932C4B1A6C42F080521A641B6C03F056
:103DE00080530193019B0125284B1B6813F4807FAE
:103DF00023D0A368012B34D0052B38D0214B1A6F68
:103E000022F001021A671A6F22F004021A67A368EF
:103E1000002B3DD0FEF76EFD06461A4B1B6F13F0CC
:103E2000020F46D1FEF766FD801B41F288339842AF
:103E3000F3D90320C6E00025D6E7144A136843F4FB
:103E400080731360FEF756FD0646104B1B6813F493
:103E5000807FCED1FEF74EFD801B0228F5D90320CE
:103E6000B0E0084A136F43F001031367CFE7054B37
:103E70001A6F42F004021A671A6F42F001021A67C1
:103E8000C5E700BF00380240000047420070004014
:103E9000FEF730FD0646524B1B6F13F0020F08D0A1
:103EA000FEF728FD801B41F288339842F3D90320A6
:103EB00088E0EDB9A369002B00F08380484A92683E
:103EC00002F00C02082A51D0022B17D0454B0022D9
:103ED0001A66FEF70FFD0446414B1B6813F0007F86
:103EE00042D0FEF707FD001B0228F5D9032069E048
:103EF0003B4A136C23F080531364DBE7394B0022F9
:103F00001A66FEF7F7FC0546354B1B6813F0007F79
:103F100006D0FEF7EFFC401B0228F5D9032051E044
:103F2000E369226A1343626A43EA8213A26A52086F
:103F3000013A43EA0243E26A43EA0263284A5360D1
:103F4000284B01221A66FEF7D5FC0446244B1B6859
:103F500013F0007F06D1FEF7CDFC001B0228F5D937
:103F600003202FE000202DE000202BE0012B2BD0A0
:103F70001B4B5B6803F48001E269914226D103F098
:103F80003F02216A8A4223D1616A47F6C0721A4011
:103F9000B2EB811F1ED103F44031A26A5208013AEC
:103FA000B1EB024F18D103F07063E26AB3EB026F1A
:103FB00014D1002006E001207047012002E001201A
:103FC00000E0002002B070BD0120FBE70120F9E70E
:103FD0000120F7E70120F5E70120F3E70120F1E7F1
:103FE000003802400000474208B5254B9B6803F0AB
:103FF0000C03042B3FD0082B3FD1214B5A6802F011
:104000003F025B6813F4800F12D01D4B5968C1F357
:1040100088111C480023A1FB0001FCF72FFD184B61
:104020005B68C3F3014301335B00B0FBF3F025E0B1
:10403000134B5968C1F3881C4FEA4C11B1EB0C00CB
:104040006EEB0E0E4FEA8E1343EA90638101091A5C
:1040500063EB0E03DB0043EA5173C90011EB0C0C58
:1040600043F10003990200234FEA8C2041EA9C515E
:10407000FCF704FDD3E7034800E0034808BD00BF98
:104080000038024040787D010024F400002800F050
:104090009B8070B50D4604464F4B1B6803F00F0321
:1040A0008B4208D2CBB24C4A1370136803F00F0353
:1040B0008B4240F08B80236813F0020F17D013F06F
:1040C000040F04D0454A936843F4E0539360236897
:1040D00013F0080F04D0414A936843F4604393609F
:1040E0003E4A936823F0F003A1680B439360236872
:1040F00013F0010F32D06368012B21D09A1E012AE0
:1041000025D9364A126812F0020F61D033498A6805
:1041100022F0030213438B60FEF7ECFB06462F4BA5
:104120009B6803F00C036268B3EB820F16D0FEF7B6
:10413000E1FB801B41F288339842F0D9032042E032
:10414000264A126812F4003FE0D101203BE0234AE6
:10415000126812F0007FD9D1012034E01E4B1B6899
:1041600003F00F03AB4207D9EAB21B4B1A701B686E
:1041700003F00F03AB422DD1236813F0040F06D0D8
:10418000164A936823F4E053E1680B439360236875
:1041900013F0080F07D0114A936823F46043216994
:1041A00043EAC1039360FFF71FFF0C4B9B68C3F307
:1041B00003130B4AD35CD8400A4B18600A4B1868AB
:1041C000FEF74CFB002070BD012070470120FAE78C
:1041D0000120F8E70120F6E7003C024000380240E9
:1041E000300001081800002020000020014B186852
:1041F000704700BF1800002008B5FFF7F7FF044B19
:104200009B68C3F38223034AD35CD84008BD00BF38
:10421000003802404000010808B5FFF7E7FF044BF3
:104220009B68C3F34233034AD35CD84008BD00BF48
:10423000003802404000010830B583B004460368EE
:1042400013F0430F15D1236813F00C0F6AD12368C4
:1042500013F0200F40F0BF80236813F0100F00F020
:10426000238194F82C20914BC3F8E021002003B067
:1042700030BD8F4B00229A66FEF73CFB05468D4B06
:104280001B6813F0006F06D0FEF734FB431B022BB4
:10429000F5D90320EBE7236813F0010F07D062681C
:1042A000A3681B0743EA8213824AC2F8843023685A
:1042B00013F0020F15D07F4AD2F884106068E368CB
:1042C0001B0643EA801301F0E0410B43C2F884303F
:1042D000D2F88C3023F01F03E16901390B43C2F897
:1042E0008C30236813F0400F0AD06268E3681B0625
:1042F00043EA8213A26843EA02736E4AC2F884302A
:104300006B4B01229A66FEF7F5FA0546694B1B686E
:1043100013F0006F97D1FEF7EDFA401B0228F5D994
:104320000320A4E7624B00221A67FEF7E3FA054672
:10433000604B1B6813F0005F06D0FEF7DBFA431BEF
:10434000022BF5D9032092E7236813F0040F16D04F
:10435000584AD2F88810206963691B0643EA801323
:1043600001F0E0410B43C2F88830D2F88C3023F4DE
:10437000F853216A013943EA0123C2F88C302368DB
:1043800013F0080F14D04B4AD2F88830216903F09B
:10439000706343EA8113A16943EA0173C2F888306C
:1043A000D2F88C3023F44033616A0B43C2F88C306E
:1043B0003F4B01221A67FEF79DFA05463D4B1B68ED
:1043C00013F0005F7FF443AFFEF794FA401B02281E
:1043D000F4D903204BE700230193364B1A6C42F0CB
:1043E00080521A641B6C03F080530193019B324A84
:1043F000136843F480731360FEF77CFA05462E4B76
:104400001B6813F4807F06D1FEF774FA401B022864
:10441000F5D903202BE7274B1B6F13F4407314D0FF
:10442000A26A02F440729A420FD0224B1A6F22F411
:1044300040721F490120C1F8400E0020C1F8400E13
:104440001A671B6F13F0010F12D1A36A03F44072B5
:10445000B2F5407F1DD0174A936823F4F813936098
:1044600014490B6FA26AC2F30B0213430B67F3E606
:10447000FEF740FA05460F4B1B6F13F0020FE4D115
:10448000FEF738FA401B41F288339842F3D90320F3
:10449000EDE608498A6822F4F81223F0704323F409
:1044A000407313438B60DBE70020E0E600104742D7
:1044B000000047420038024000700040E0B138B5CB
:1044C0000D46044690F82C308BB1022384F82C3032
:1044D000214651F8040B00F0B2FA626829462068C0
:1044E00000F0E9FA012384F82C30002038BD80F870
:1044F0002D30FDF759F8E8E70120704738B504463C
:1045000090F82C00C0B202280DD00D46022384F88A
:104510002C30206800F024FB2B68022B04D00123F0
:1045200084F82C30002038BD052384F82C3000207E
:10453000F9E710B4036A046A24F001040462846990
:1045400024F0F00C4CEA021223F00A030B438261C0
:1045500003625DF8044B704710B4046A24F0100441
:1045600004628469036A24F4704C4CEA023223F03A
:10457000A00343EA0113826103625DF8044B7047B4
:10458000836823F070030B4343F007038360704795
:1045900090F83D30DBB2012B32D1022380F83D3060
:1045A0000368194A934220D0B3F1804F1DD0A2F581
:1045B0007C42934219D002F58062934215D002F5F5
:1045C0008062934211D002F5784293420DD002F5F9
:1045D0007052934209D0A2F59432934205D01A68E2
:1045E00042F001021A60002070479A6802F0070248
:1045F000062A07D01A6842F001021A6000207047AC
:104600000120704700207047000001400368304AD5
:10461000904212D0B0F1804F0FD0A2F57C42904270
:104620000BD002F58062904207D002F58062904282
:1046300003D002F57842904203D123F070034A6818
:104640001343234A90422AD0B0F1804F27D0A2F5DD
:104650007C42904223D002F5806290421FD002F546
:10466000806290421BD002F57842904217D002F54A
:104670007052904213D002F5806290420FD002F542
:10468000806290420BD0A2F59832904207D002F59A
:104690008062904203D002F58062904203D123F4FD
:1046A0004073CA68134323F080034A6913430360CD
:1046B0008B68C3620B688362054B984203D003F595
:1046C0008063984201D10B69036301234361704702
:1046D0000000014040B310B5044690F83D30F3B1FE
:1046E000022384F83D30214651F8040BFFF78EFF7A
:1046F000012384F8463084F83E3084F83F3084F853
:10470000403084F8413084F8423084F8433084F8F3
:10471000443084F8453084F83D30002010BD80F8E6
:104720003C30FDF747FEDBE70120704710B484689A
:1047300024F47F4C42EA03220A4342EA0C028260DC
:104740005DF8044B704790F83C30012B78D010B5E1
:104750000446012380F83C30022380F83D30026893
:10476000936823F47F4323F0770393600B68602BF7
:104770004CD029D8402B54D00CD9502B22D1CA6808
:1047800049680068FFF7D5FE50212068FFF7F8FE62
:10479000002005E0202B0DD009D9302B0AD00120B4
:1047A000012384F83D30002384F83C3010BD0BB168
:1047B000102B05D119462068FFF7E2FE0020EFE735
:1047C0000120EDE70120EBE7B3F5805F34D0B3F5CE
:1047D000005F0CD1CB684A6889680068FFF7A6FFC4
:1047E0002268936843F4804393600020D8E7702BDD
:1047F00024D1CB684A6889680068FFF797FF226870
:10480000936843F0770393600020C9E7CA6849685A
:104810000068FFF7A1FE60212068FFF7B1FE0020CD
:10482000BEE7CA6849680068FFF783FE4021206838
:10483000FFF7A6FE0020B3E70020B1E70120AFE7B5
:104840000220704790F83C30012B3DD010B401237A
:1048500080F83C30022380F83D3003685A689C6839
:1048600022F0700C0A6842EA0C025A600368174A88
:1048700093421AD0B3F1804F17D0A2F57C429342F5
:1048800013D002F5806293420FD002F5806293420A
:104890000BD002F57842934207D002F57052934252
:1048A00003D0A2F59432934204D124F080044A68E4
:1048B00014439C60012380F83D30002380F83C3095
:1048C00018465DF8044B7047022070470000014015
:1048D00038B504460268136923F44053C1680B439A
:1048E000136183680269134342691343C2691A431F
:1048F0000168CB6823F4164323F00C031343CB6009
:104900000268536923F4407381690B435361036860
:10491000314A934206D002F58062934202D0FFF7FB
:104920006BFC01E0FFF778FCE369B3F5004F29D099
:104930000021031849411B1841F10001C90041EA57
:104940005371DB00181863684FEA83024FEA9373D0
:1049500041F10001FCF792F8204DA5FB003251090E
:10496000642303FB11031B013233A5FB03235B0903
:1049700003F0F00202EB011203F00F03216813446D
:104980008B6038BD0023021843EB0301121841F17C
:104990000001C90041EA5271D200101841F1000132
:1049A000626892185B41FCF769F80C4DA5FB003278
:1049B0005109642303FB1103DB003233A5FB0323FE
:1049C0005B095A0002F4F87202EB011203F00703CC
:1049D000216813448B60D4E7001001401F85EB5120
:1049E00058B310B5044690F83D300BB3242384F837
:1049F0003D302268D36823F40053D3602046FFF78C
:104A000067FF2268136923F4904313612268536996
:104A100023F02A0353612268D36843F40053D36020
:104A200000202064202384F83D3084F83E3010BDFF
:104A300080F83C30FDF70AFDD8E70120704730B41C
:104A40000B68012B1AD0026822F4FF4222F07F0289
:104A50004B688C682343CC6823430C6923434C691F
:104A600023438C692343CC6923430C6A2343496A5B
:104A70000B4313430360002030BC7047026822F4EC
:104A8000F842CB690C6A1C434B6A1C4314434268CE
:104A900022F4FF4222F07F024B688D682B43CD68E1
:104AA0002B430D692B434D692B4389690B431343FA
:104AB00004604360DFE710B5012A25D0826802F068
:104AC00070420B68013B4C6804F1FF3C43EA0C1355
:104AD0008C6804F1FF3C43EA0C23CC6804F1FF3CF2
:104AE00043EA0C330C6904F1FF3C43EA0C434C6984
:104AF00004F1FF3C43EA0C538969013943EA01633D
:104B000013438360002010BD826822F4700C2CF4E3
:104B1000704CCA6802F1FF3E4B695A1E120542EA08
:104B20000E3242EA0C02C36803F0704C0B68013B82
:104B30004C6804F1FF3E43EA0E138C6804F1FF3E1B
:104B400043EA0E230C6904F1FF3E43EA0E438969F0
:104B5000013943EA016343EA0C038260C360D1E791
:104B600070B582B004461546002301930B684A686D
:104B700013438A68013A43EA4213CA6843EA42236C
:104B80000193019B0361FDF7B5FE0646A36913F08F
:104B9000200F0AD0B5F1FF3FF8D025B1FDF7AAFEEE
:104BA000801BA842F2D9032000E0002002B070BDB3
:104BB000DFF834D00D480E490E4A002302E0D458E5
:104BC000C4500433C4188C42F9D30B4A0B4C002355
:104BD00001E013600432A242FBD3FDF7A9FB01F010
:104BE00037FAFDF7CBFA70470000032000000020E1
:104BF000D0090020EC360208D0090020A46D002066
:104C0000FEE7000030B48D08DFED205A20D000F11F
:104C100010032C4653ED046A13ED037A53ED027A28
:104C200013ED016A66EEA66A27EE077A76EEA56AAC
:104C300067EEA77A37EE267A26EE066A77EE877A4F
:104C4000013C03F1100376EE275AE3D100EB051087
:104C500011F0030115D0D0ED007A67EEA77A013983
:104C600075EEA75A0DD0D0ED017A67EEA77A01292B
:104C700075EEA75A05D0D0ED027A67EEA77A75EEE9
:104C8000A75AC2ED005A30BC704700BF00000000B8
:104C900001F1FF3CF0B507465FEA9C0EF7EC017AA4
:104CA00060D00024143025464FEA8E0610ED047AB9
:104CB000F4EEC77AF1EE10FA48BFF0EE477A10ED45
:104CC000037AF4EEC77A48BF651CF1EE10FA48BFCC
:104CD000F0EE477A10ED027AF4EEC77A48BFA51CD1
:104CE000F1EE10FA48BFF0EE477A10ED017AF4EEDB
:104CF000C77A48BFE51CF1EE10FA04F1040444BF82
:104D0000F0EE477A2546A64200F11000CED107EB1F
:104D10000E171CF0030021D097ED007AB4EEE77A6D
:104D2000F1EE10FAC4BFF0EE477A0D1A013815D033
:104D300097ED017AF4EEC77AF1EE10FA44BFF0EE87
:104D4000477A0D1A012809D097ED027AB4EEE77A76
:104D5000F1EE10FAC4BFF0EE477A6546C2ED007A74
:104D60001D60F0BD7546D4E778B130B40849094AF2
:104D70001023C0E90121038020251424064B05825D
:104D80008481436130BC002070474FF0FF30704792
:104D9000581001089059010810E7010878B130B4A3
:104DA0000849094A2023C0E9012103804025302415
:104DB000064B05828481436130BC002070474FF070
:104DC000FF307047B031010810A20108902F02088F
:104DD00080B130B409490A4A8023C0E90121038027
:104DE0004FF48075D024074B05828481436130BC29
:104DF000002070474FF0FF30704700BFB80E010829
:104E00009055010810E3010890B130B40A490B4AEB
:104E10004FF48073C0E9012103804FF400754FF413
:104E2000DC74074B05828481436130BC00207047ED
:104E30004FF0FF30704700BF402E0108109A010864
:104E40009027020890B130B40A490B4A4FF400731E
:104E5000C0E9012103804FF480654FF4E074074BF3
:104E600005828481436130BC002070474FF0FF30E1
:104E7000704700BF1032010810A3010810B30108E9
:104E800090B130B40A490B4A4FF48063C0E9012164
:104E900003804FF400654FF4E164074B0582848181
:104EA000436130BC002070474FF0FF30704700BFB7
:104EB000A80001089035010810C3010890B130B472
:104EC0000A490B4A4FF40063C0E9012103804FF403
:104ED00080554FF46E64074B05828481436130BC7A
:104EE000002070474FF0FF30704700BF801001086E
:104EF000105A010890E70108B1F5007F1FD00BD9C7
:104F0000B1F5006F19D0B1F5805F12D0B1F5806FA7
:104F10000DD04FF0FF30704740290CD0B1F5807FA5
:104F200003D02029F5D1074B1847074B1847074BEB
:104F30001847074B1847074BF6E7074BF4E7074BB3
:104F4000F2E700BF694D0008D14D0008454E00084A
:104F5000BD4E00089D4D0008814E0008094E000816
:104F600010B4D1ED007A91ED017A0488406937EEF2
:104F7000077A77EEA77AB6EE004A77EE876A77EE81
:104F8000C77A013C26EE847A67EE847A01EBC4038B
:104F900082ED007AC2ED017A10301032083B1031F8
:104FA00011ED025A93ED027A50ED026AD3ED034AF5
:104FB00051ED017A10ED016A77EE455A37EE057A28
:104FC00066EEA53A34EEA75A66EE255A77EEE47AF5
:104FD00037EE237A66EE856A26EE056A77EEA57AC5
:104FE00037EE067A77EEE67A27EE047A67EE847A71
:104FF000013C02ED027A42ED017AA3F1080301F1CE
:10500000080100F1080002F10802C9D15DF8044B63
:10501000704700BF10B4D1ED007AD1ED016A048869
:10502000406937EEA67A77EEE67AB6EE004A27EECA
:10503000047A67EE847A013C82ED007AC2ED017A4F
:10504000DCB3E300083B0B4410301032103111ED9B
:10505000025A93ED027A50ED026AD3ED034A51ED04
:10506000017A10ED016A75EE475A37EE057A66EE61
:10507000A53A34EEA75A66EE255A77EEE47A37EE73
:10508000637A66EE856A26EE056A77EEA57A37EED4
:10509000467A77EEE67A27EE047A67EE847A013C68
:1050A00002ED027A42ED017AA3F1080301F1080151
:1050B00000F1080002F10802C9D15DF8044B704705
:1050C0002DE9F041058A6D080580044616461D4607
:1050D0004BB1FFF79FFF2A46314620460123BDE82A
:1050E000F04100F033BB0F461A46012300F02EFBBF
:1050F000324639462046BDE8F041FFF731BF00BFD8
:105100002DE9F0412DED088B07460846B7F800C0A1
:105110007A684FEA5C0100EB8C085FEADC0C00F077
:10512000B0808C00103400F1100306191032444492
:1051300003EB0C1C08F1100515ED042A55ED032AAC
:1051400054ED044A14ED034A14ED026A54ED015A79
:1051500053ED043A15ED020A55ED010A56ED046AC5
:1051600016ED033A13ED037A13ED025A53ED017A6B
:1051700016ED021A56ED011A73EE82BA37EE22BA14
:1051800076EEA49A33EE049A31EEA58A75EE00AA63
:1051900037EEA0AA71EE068A43ED04BA03ED03BA16
:1051A00043ED02AA03ED01AA06ED018A46ED049A39
:1051B00006ED039A46ED028A37EE627A74EEE64A0D
:1051C00034EE434A52ED036A12ED043A73EEC23AEA
:1051D00027EE268A64EEA62A23EE832A64EE834A0B
:1051E00063EEA63A27EE037A64EE266A24EE034ABB
:1051F00037EE637A76EEA46A32EEC44A32EE083AAB
:1052000005ED037A05ED043A04ED044A44ED036A22
:1052100012ED017A76EE416A35EE405A35EEE16ADA
:1052200077EEE07A52ED025A67EE873A66EE874AE9
:1052300025EE254A67EEA57A25EE075A66EEA56AA1
:1052400026EE077A26EE256A77EEC57A74EE235AA3
:1052500034EEC66A37EE267A1033634545ED025ABE
:1052600006F1100645ED017A02F1100204ED026A22
:1052700004ED017A05F1100504F110047FF45CAF30
:105280007A688CB22146022300F01CFCBDEC088B2E
:1052900021467A6840460223BDE8F04100F012BC86
:1052A0002DE9F04F2DED0A8B8DB00D460B91018845
:1052B00042680A9049088B00EE18F018D0ED005AA9
:1052C000D5ED007A96ED007AD0ED013A96ED014ADF
:1052D00095ED015A089037EEA56AC718D7ED004A38
:1052E00097ED013A019777EE066A2C4676EEA46AAE
:1052F00077EEE57A16EE90CA44F808CB75EE236A8D
:10530000D6ED015AD7ED012A049435EE635A74EEB6
:10531000273A36EE476A76EEA55A73EEC33A490845
:1053200002F1080E76EEC46A77EEC47A099135EE82
:10533000474AA1F10209CDF80CE0314613EE90EA9C
:1053400036EE646A75EEA25A0446C5ED015A37EE90
:10535000057A41F808EB34EE245A16EE10EA86ED91
:10536000015A76EEC36A44F808EB77EE837AC0ED13
:10537000016A0594044617EE900A069137EE647AA6
:1053800002F11001BC46009147F8080B02F1180128
:105390005FEA590002918CED017A079000F03481A8
:1053A00002F1200902F13008019ADDF800A00C3B5F
:1053B0008346634405F1100EA4F10C0104F11005BD
:1053C000A6F10C0CA2F10C0406F1100010321EED37
:1053D000025A55ED025A50ED027A52ED021A55ED7D
:1053E000016A1EED010A12ED011A10ED018A35EE77
:1053F000254A30EE266A37EE847A30EE660A37EEBA
:10540000217A75EE655A0EED027A10ED017A52EDB1
:10541000016A36EE077A78EE25AA37EE267A70EE24
:10542000673A0EED017A94ED027A9CED022A91ED35
:1054300002BAD3ED029AD4ED012A9CED019A93EDC4
:10544000015AD1ED010A72EE076A32EE472A7BEE6D
:10545000268A79EE224A38EEA97A79EE622A8CED14
:10546000027A91ED017AD3ED018A34EE877A3BEE30
:10547000693A37EE287A32EE609A8CED017A1AEDAD
:10548000017A1AED02AA73EE228A39EE059A7AEEB3
:10549000C1AA73EEA13A2AEE8ACA69EE07BA6AEE89
:1054A00087AA29EE0A9A63EE87CA63EE8A3A28EE43
:1054B0008AAA68EE878A73EEEA3A78EE898A3CEE29
:1054C0002C7A3BEECAAA34EE674A76EECB6A36EE09
:1054D000486A74EEE04A00ED027A40ED013AC1ED0F
:1054E000018A81ED02AA59ED043A36EEE97A74EEAA
:1054F000C54A59ED036A34EE614A36EE416A67EEF9
:10550000638A66EE269A24EE239A26EE236A24EE18
:10551000264A27EE267A64EEA66A64EEA34A36EEA1
:10552000446A37EE647A38EEE64A79EE293A75EE47
:10553000606A75EEC85A77EE807A45ED023A05ED5D
:10554000016A84ED017A84ED024A35EE816A36EE15
:10555000C27A58ED065A58ED056A33EE623A77EE94
:10556000E17A67EE262A67EEA64A26EE255A67EE0E
:10557000A57A26EE266A27EE257A63EE266A23EEC2
:10558000253A77EEC67A75EE245A32EEC33A36EEF5
:10559000877ABBF1010B42ED025A42ED017A0EF11E
:1055A000080E83ED023A83ED017AACF1080C0AF1A2
:1055B000080A00F10800A1F1080109F1100905F13C
:1055C0000805A4F1080408F1180802F10802A3F183
:1055D00008037FF4FCAE07990098CB0001EB410271
:1055E00000EB0111009104991944049103991944A5
:1055F000039106991944069105991F441944029B89
:10560000059103EBC20302930499059891ED004ABA
:10561000D0ED006A069B97ED003AD3ED007AD0ED0D
:10562000014AD1ED013A97ED012A93ED017A039AEF
:10563000BDF8244034EE266A73EEA45A37EE865A3B
:1056400073EEE43A35EE035A74EE666A81ED005A61
:1056500093ED015AD7ED014A35EE855A37EE264AC9
:1056600035EE245A73EEE74A81ED015AD2ED001A65
:10567000D2ED012A34EE835A34EE424A36EE676A9E
:1056800064EE214A24EE224A65EE222A25EE215AB2
:1056900074EEA22A35EE445AC3ED002A83ED015A76
:1056A00075EEC75A009B36EE436A93ED014A93EDBF
:1056B000005A029B75EEC25A66EE054A25EE855ADF
:1056C00026EE046A65EE845A35EE466A74EEA55AF3
:1056D00077EEA37A36EEC77A80ED016AC0ED005A04
:1056E000D3ED015AD3ED006A37EE027A77EEC37A32
:1056F00027EE266A67EEA66A27EE257A67EEA57A78
:1057000036EEC77A76EE277A87ED017AC7ED007A12
:10571000DDE90A5021466A68042300F0D3F93046D7
:1057200021466A68042300F0CDF908986A6821468A
:10573000042300F0C7F96A680198214604230DB0DC
:10574000BDEC0A8BBDE8F04F00F0BCB92DE9F0418B
:10575000012A064617460C469846058856D0B5F5E8
:10576000807F63D016D9B5F5806F1AD047D9B5F5CB
:10577000006F5BD0B5F5805F05D1012372682946C3
:10578000204600F09FF9B8F1000F11D1012F16D07B
:10579000BDE8F081202D49D035D9402DEDD0802DA8
:1057A000F1D121463046FFF7ABFCB8F1000FEDD048
:1057B000B268B189204600F041F8012FE8D107EE28
:1057C000905AF8EE677AB7EE007AC7EE276A002D96
:1057D000DED004F10801002301339D4201F10801EC
:1057E00011ED047A51ED037A27EE267A67EEE67A18
:1057F00001ED047A41ED037AEED1BDE8F081B5F513
:10580000007FBAD0BFE7102DCBD0BCE79DB101F12E
:105810000C03002253ED027A0132F1EE677A9542D1
:1058200043ED027A03F10803F4D198E721463046AC
:10583000FFF736FDA7E7002BAAD0B9E7E9B1F0B52D
:10584000002502F1020E3EF8154032F81530A4088A
:105850009B0850F8246050F823C040F82360A6004D
:105860009B0040F824C00433341D0235C658075944
:10587000C7508D420651E6D3F0BD70472DE9F04187
:105880002DED028B970884B077D04FF0000800F11F
:10589000200401F110053E4614ED080A54ED077A84
:1058A00020EE000A67EEA77A30EE270AB5EEC00AAE
:1058B000F1EE10FAC0F2C580B5EE400AF1EE10FA32
:1058C000B1EEC08A00F1CB8005ED048A14ED060A22
:1058D00054ED057A20EE000A67EEA77A30EE270A2B
:1058E000B5EEC00AF1EE10FAC0F2A880B5EE400A9B
:1058F000F1EE10FAB1EEC08A00F1A88005ED038A3E
:1059000014ED040A54ED037A20EE000A67EEA77A3C
:1059100030EE270AB5EEC00AF1EE10FAC0F28B8025
:10592000B5EE400AF1EE10FAB1EEC08A00F1A9809E
:1059300005ED028A14ED020A54ED017A20EE000A08
:1059400067EEA77A30EE270AB5EEC00AF1EE10FA3C
:105950006EDBB5EE400AF1EE10FAB1EEC08A00F14E
:10596000878005ED018A013E04F1200405F1100550
:1059700092D100EB471001EB071112F0030252D055
:1059800090ED000AD0ED017A20EE000A67EEA77ACA
:10599000002337EE800AB5EEC00AF1EE10FAB8BF68
:1059A0000B6008DBB5EE400AF1EE10FAB1EEC08AEA
:1059B00079D481ED008A013A35D090ED020AD0ED1C
:1059C000037A20EE000A67EEA77A002337EE800AFA
:1059D000B5EEC00AF1EE10FAB8BF4B6008DBB5EEC9
:1059E000400AF1EE10FAB1EEC08A53D481ED018A7B
:1059F000012A18D090ED040AD0ED057A20EE000AB5
:105A000067EEA77A002330EE270AB5EEC00AF1EE62
:105A100010FA19DBB5EE400AF1EE10FAB1EEC08AC9
:105A20004AD481ED028A04B0BDEC028BBDE8F0815E
:105A300045F8048C97E745F8088C7BE745F80C8C13
:105A40005EE745F8108C41E78B60ECE7CDE9021288
:105A5000019006F025FCDDE9021201984EE7CDE940
:105A60000212019006F01CFCDDE9021201982BE7FE
:105A7000CDE90212019006F013FCDDE90212019853
:105A80006FE7CDE90212019006F00AFCDDE902128F
:105A900001984DE7CDE90201019206F001FCDDE934
:105AA00001200399A2E7CDE90201019206F0F8FB7B
:105AB000DDE9012003997CE7019106F0F1FB0199F2
:105AC000AFE700BF2DE9F04F2DED108B95B0CDE97C
:105AD0001032034604339FEDB9BA12908B461393EC
:105AE00089464FEADB06129B0F964FEA46184FEAAB
