:020000040800F2
:1000000000000220B57400086114000863140008A1
:100010006514000867140008691400080000000057
:100020000000000000000000000000006B14000849
:100030006D140008000000006F140008711400081F
:1000400005750008057500080575000805750008A8
:100050000575000805750008057500080575000898
:100060000575000805750008057500080575000888
:100070000575000805750008057500080575000878
:100080000575000805750008057500080575000868
:100090000575000805750008057500080575000858
:1000A0000575000805750008057500080575000848
:1000B0000575000805750008057500080575000838
:1000C0000575000805750008057500080575000828
:1000D0000575000879140008057500080575000805
:1000E000057500080575000800000000057500088A
:1000F00005750008057500080575000805750008F8
:100100008914000899140008057500080575000891
:1001100005750008057500080575000805750008D7
:1001200005750008057500080575000805750008C7
:1001300005750008057500080575000805750008B7
:1001400000000000000000000000000000000000AF
:100150000575000805750008057500080575000897
:100160000575000805750008057500080575000887
:1001700005750008057500080575000800000000F9
:100180000575000805750008057500080575000867
:100190000575000805750008057500080575000857
:1001A000A914000805750008B914000805750008B1
:1001B0000575000805750008057500080575000837
:1001C0000575000805750008057500080575000827
:1001D0000575000805750008057500080575000817
:1001E0000575000805750008057500080575000807
:1001F00005750008057500080575000805750008F7
:1002000005750008057500080575000805750008E6
:1002100005750008057500080575000805750008D6
:100220000575000805750008057500080000000048
:100230000575000805750008000000000575000838
:1002400005750008057500080575000805750008A6
:100250000575000805750008057500080575000896
:100260000575000805750008057500080575000886
:1002700005750008057500080575000800000000F8
:1002800005750008057500080575000800000000E8
:080290000000000005750008E4
:1002980010B5054C237833B9044B13B10448AFF3B8
:1002A80000800123237010BD3C04002000000000E2
:1002B800D476000808B5034B1BB103490348AFF3D4
:1002C800008008BD0000000040040020D47600082B
:1002D80080F0004002E000BF81F0004142001FBFF3
:1002E8005FEA410392EA030F7FEA226C7FEA236CFC
:1002F8006AD04FEA1262D2EB1363C1BFD2184140F1
:1003080048404140B8BF5B42192B88BF704710F086
:10031800004F40F4000020F07F4018BF404211F029
:10032800004F41F4000121F07F4118BF494292EA91
:10033800030F3FD0A2F1010241FA03FC10EB0C00BD
:10034800C3F1200301FA03F100F0004302D549424A
:1003580060EB4000B0F5000F13D3B0F1807F06D3F7
:1003680040084FEA310102F10102FE2A51D2B1F1EF
:10037800004F40EBC25008BF20F0010040EA0300E4
:100388007047490040EB0000013A28BFB0F5000F64
:10039800EDD2B0FA80FCACF1080CB2EB0C0200FA1A
:1003A8000CF0AABF00EBC25052421843BCBFD04069
:1003B8001843704792F0000F81F4000106BF80F4E3
:1003C80000000132013BB5E74FEA41037FEA226CA6
:1003D80018BF7FEA236C21D092EA030F04D092F071
:1003E800000F08BF0846704790EA010F1CBF0020A5
:1003F800704712F07F4F04D1400028BF40F0004002
:10040800704712F100723CBF00F50000704700F021
:10041800004343F0FE4040F4000070477FEA226248
:1004280016BF08467FEA23630146420206BF5FEA19
:10043800412390EA010F40F4800070474FF0000319
:1004480004E000BF10F0004348BF40425FEA000CE0
:1004580008BF704743F0964301464FF000001CE088
:1004680050EA010208BF70474FF000030AE000BFDE
:1004780050EA010208BF704711F0004302D540421C
:1004880061EB41015FEA010C02BF8446014600208E
:1004980043F0B64308BFA3F18053A3F50003BCFAA9
:1004A8008CF2083AA3EBC25310DB01FA02FC634456
:1004B80000FA02FCC2F12002BCF1004F20FA02F25D
:1004C80043EB020008BF20F00100704702F1200250
:1004D80001FA02FCC2F1200250EA4C0021FA02F2B1
:1004E80043EB020008BF20EADC7070474FF0FF0CB6
:1004F8001CEAD0521EBF1CEAD15392EA0C0F93EAB1
:100508000C0F6FD01A4480EA010C400218BF5FEA52
:1005180041211ED04FF0006343EA501043EA5111C5
:10052800A0FB01310CF00040B1F5000F3EBF4900BF
:1005380041EAD3715B0040EA010062F17F02FD2AC3
:100548001DD8B3F1004F40EBC25008BF20F00100A6
:10055800704790F0000F0CF0004C08BF49024CEABD
:10056800502040EA51207F3AC2BFD2F1FF0340EA4F
:10057800C250704740F400004FF00003013A5DDCC0
:1005880012F1190FDCBF00F000407047C2F1000201
:10059800410021FA02F1C2F1200200FA02FC5FEAEE
:1005A800310040F1000053EA4C0308BF20EADC7038
:1005B800704792F0000F00F0004C02BF400010F4AA
:1005C800000F013AF9D040EA0C0093F0000F01F057
:1005D800004C02BF490011F4000F013BF9D041EA79
:1005E8000C018FE70CEAD15392EA0C0F18BF93EA7B
:1005F8000C0F0AD030F0004C18BF31F0004CD8D1A5
:1006080080EA010000F00040704790F0000F17BF2B
:1006180090F0004F084691F0000F91F0004F14D071
:1006280092EA0C0F01D142020FD193EA0C0F03D1C9
:100638004B0218BF084608D180EA010000F00040CC
:1006480040F0FE4040F40000704740F0FE4040F4A7
:10065800400070474FF0FF0C1CEAD0521EBF1CEA46
:10066800D15392EA0C0F93EA0C0F69D0A2EB030264
:1006780080EA010C49024FEA402037D04FF08053FE
:1006880043EA111143EA10130CF000408B4238BFC3
:100698005B0042F17D024FF4000C8B4224BF5B1AD1
:1006A80040EA0C00B3EB510F24BFA3EB510340EA1F
:1006B8005C00B3EB910F24BFA3EB910340EA9C00CD
:1006C800B3EBD10F24BFA3EBD10340EADC001B013D
:1006D80018BF5FEA1C1CE0D1FD2A3FF650AF8B42E1
:1006E80040EBC25008BF20F0010070470CF0004CEE
:1006F8004CEA50207F32C2BFD2F1FF0340EAC25019
:10070800704740F400004FF00003013A37E792F0D9
:10071800000F00F0004C02BF400010F4000F013A37
:10072800F9D040EA0C0093F0000F01F0004C02BF32
:10073800490011F4000F013BF9D041EA0C0195E79B
:100748000CEAD15392EA0C0F08D142027FF47DAF34
:1007580093EA0C0F7FF470AF084676E793EA0C0F24
:1007680004D14B023FF44CAF08466EE730F0004C22
:1007780018BF31F0004CCAD130F000427FF45CAFB2
:1007880031F000437FF43CAF5FE700BF42000ED278
:10079800B2F1FE4F0BD34FF09E03B3EB126209D4B4
:1007A8004FEA002343F0004323FA02F070474FF06A
:1007B8000000704712F1610F01D1420202D14FF0DF
:1007C800FF3070474FF00000704700BF53B94AB977
:1007D800002908BF00281CBF4FF0FF314FF0FF3041
:1007E80000F074B9ADF1080C6DE904CE00F006F81C
:1007F800DDF804E0DDE9022304B070472DE9F04795
:10080800089E0D4604468846002B4DD18A429446E0
:1008180068D9B2FA82F252B101FA02F3C2F12001A8
:1008280020FA01F10CFA02FC41EA030894404FEA6D
:100838001C45210CB8FBF5FE1FFA8CF705FB1E833F
:1008480041EA03430EFB07F199420BD91CEB030362
:100858000EF1FF3080F01E81994240F21B81AEF10B
:10086800020E63445B1AA4B2B3FBF5F005FB103328
:1008780044EA034400FB07F7A7420AD91CEB040427
:1008880000F1FF3380F00881A74240F205816444FB
:100898000238E41B40EA0E4000211EB1D440002378
:1008A800C6E90043BDE8F0878B4208D9002E00F066
:1008B800EE800021C6E900050846BDE8F087B3FAD6
:1008C80083F100294AD1AB4202D3824200F2F98077
:1008D800841A65EB030301209846002EE2D0C6E98E
:1008E8000048DFE702B9FFDEB2FA82F2002A40F0E0
:1008F8009180A1EB0C054FEA1C471FFA8CFE0121E1
:10090800B5FBF7F307FB1350250C45EA00450EFB32
:1009180003F0A84208D91CEB050503F1FF3802D201
:10092800A84200F2CB8043462D1AA4B2B5FBF7F0DB
:1009380007FB105544EA05440EFB00FEA64508D9FE
:100948001CEB040400F1FF3502D2A64500F2BB807F
:100958002846A4EB0E0440EA03409EE7C1F12007B5
:100968008B4022FA07FC4CEA030C20FA07F405FA3C
:1009780001F31C43FD404FEA1C4900FA01F3B5FBA3
:10098800F9F8200C1FFA8CFE09FB185540EA0545BA
:1009980008FB0EF0A84202FA01F20BD91CEB050580
:1009A80008F1FF3A80F08880A84240F28580A8F1DB
:1009B800020865442D1AA4B2B5FBF9F009FB1055DD
:1009C80044EA054500FB0EFEAE4508D91CEB0505BB
:1009D80000F1FF346CD2AE456AD90238654440EA6A
:1009E8000840A0FB0294A5EB0E05A542C846A64602
:1009F80056D353D05EB1B3EB080265EB0E0505FA8A
:100A080007F722FA01F3CD401F43C6E9007500211C
:100A1800BDE8F087C2F1200320FA03F10CFA02FCCA
:100A280025FA03F395400D434FEA1C471FFA8CFE45
:100A3800B3FBF7F107FB11302B0C43EA004301FB32
:100A48000EF0984204FA02F408D91CEB030301F1F2
:100A5800FF382FD298422DD9023963441B1AADB200
:100A6800B3FBF7F007FB103345EA034500FB0EF331
:100A7800AB4208D91CEB050500F1FF3816D2AB4292
:100A880014D902386544ED1A40EA014138E7314685
:100A9800304607E78646E5E61846FAE64B45A9D20A
:100AA800B9EB020864EB0C0E0138A3E74046EAE70D
:100AB800204694E74146D1E7D0467BE7023B6544B0
:100AC80032E7084609E76444023842E7704700BF46
:100AD80008B50848084B03604FF4403343600223CD
:100AE80083600023C36001F08FFA00B908BD00F0ED
:100AF8003FFBFBE7580400200010005202680F4B30
:100B08009A4200D0704700B583B00D4BD3F8D4207B
:100B180042F01002C3F8D420D3F8D43003F0100305
:100B28000193019B002206215A2000F0EFFE5A2073
:100B380000F022FF03B05DF804FB00BF0010005274
:100B480000440258F0B5B7B0002331933293339381
:100B580034933593334B1B680BB137B0F0BD314B31
:100B680001221A60BC22002102A806F0EDFC4FF019
:100B78008073029302A802F01FFD00284FD12A4B70
:100B8800D3F8D42042F48052C3F8D420D3F8D43018
:100B980003F480530193019B4FF63F0331930227DF
:100BA800329700243394032634960C25359531A9C1
:100BB8001E4801F00BFB2C23319332973394349663
:100BC800359531A91A4801F001FB48F237133193E2
:100BD800329733943496359531A9164801F0F6FAD0
:100BE8004FF683733193329733943496359531A900
:100BF800114801F0EBFA4CF20373319332973394B6
:100C08003496359531A90D4801F0E0FA224621467F
:100C1800302000F07BFE302000F0AEFE9DE700F0B3
:100C2800A7FAACE7C0040020004402580014025898
:100C3800001C02580018025800100258000C0258F4
:100C480000B589B00023019302930393049305939D
:100C5800069307931648174A026043600122826090
:100C68000822C26010220261402242614FF4C07221
:100C78008261C3614FF4006303624FF4805343629F
:100C88004FF4005383620223019307220292042146
:100C9800039104920322059206930793694404F092
:100CA80023FE10B909B05DF804FB00F061FAF9E71A
:100CB800C40400204041005208B5FFF743FF08BDB7
:100CC800F0B58FB0002409940A940B940C940D94F9
:100CD8004D4BD3F8E02042F01002C3F8E020D3F8DF
:100CE800E02002F010020092009AD3F8E02042F4CB
:100CF8008072C3F8E020D3F8E02002F480720192F9
:100D0800019AD3F8E02042F02002C3F8E020D3F89B
:100D1800E02002F020020292029AD3F8E02042F08A
:100D28008002C3F8E020D3F8E02002F080020392AA
:100D3800039AD3F8E02042F00402C3F8E020D3F885
:100D4800E02002F004020492049AD3F8E02042F072
:100D58000102C3F8E020D3F8E02002F00102059276
:100D6800059AD3F8E02042F04002C3F8E020D3F817
:100D7800E02002F040020692069AD3F8E02042F002
:100D88000202C3F8E020D3F8E02002F00202079242
:100D9800079AD3F8E02042F00802C3F8E020D3F81D
:100DA800E03003F008030893089B184F22461121EE
:100DB800384601F009FB164D01224021284601F072
:100DC80003FB22468021284601F0FEFA11230993ED
:100DD80001260A960B940C9409A9384601F0F6F9F5
:100DE800C02309930A960B960C9409A9284601F08A
:100DF800EDF94FF4805309930A940B9409A9054817
:100E080001F0E4F90FB0F0BD0044025800000258A8
:100E1800001C02580004025800B58FB0342200218B
:100E280001A806F091FB2748274B03600023436085
:100E38008360C3600361436183612B22C2610C221A
:100E4800026240F20B2242624FF48E72826240F2DA
:100E58001322C2624FF49272026380F8343080F831
:100E6800353080F8363001F091FB28BB0022019222
:100E78004FF4F071029103924FF4887304930220A7
:100E88000590FF20069007924FF480600890052097
:100E980009904FF040400A900B910C938DF8342044
:100EA8008DF835208DF8362001A9064801F05AFC46
:100EB80028B90FB05DF804FB00F05AF9D6E700F046
:100EC80057F9F6E7F8040020001000502DE9F0412A
:100ED800BEB00446002139913A913B913C913D9135
:100EE800BC220AA806F030FB22687D4B9A4202D049
:100EF8003EB0BDE8F0814FF000530A9301231393ED
:100F0800062314930223159316930F2317934FF474
:100F1800406318934FF4007319930AA802F04CFB2E
:100F2800002840F0DA806F4BD3F8E42042F0080242
:100F3800C3F8E420D3F8E42002F008020192019AF1
:100F4800D3F8E02042F01002C3F8E020D3F8E02004
:100F580002F010020292029AD3F8E02042F4807262
:100F6800C3F8E020D3F8E02002F480720392039AD9
:100F7800D3F8E02042F02002C3F8E020D3F8E020C4
:100F880002F020020492049AD3F8E02042F004020E
:100F9800C3F8E020D3F8E02002F004020592059A95
:100FA800D3F8E02042F00102C3F8E020D3F8E020B3
:100FB80002F001020692069AD3F8E02042F080027D
:100FC800C3F8E020D3F8E02002F080020792079AE5
:100FD800D3F8E02042F04002C3F8E020D3F8E02044
:100FE80002F040020892089AD3F8E02042F0080282
:100FF800C3F8E020D3F8E03003F008030993099B15
:101008004027399702253A9500243B943C940E26B4
:101018003D9639A9344801F0D9F840F2F76339937D
:101028003A953B943C943D9639A9304801F0CEF866
:101038004FF4806339933A953B943C943D9639A993
:101048002B4801F0C3F8012339933A953B943C941B
:101058003D9639A9274801F0B9F8042339933A9500
:101068003B943C943D96DFF8908039A9404601F0C6
:10107800ADF84FF4774339933A953B943C943D96B9
:1010880039A91E4801F0A2F847F2C00339933A95EE
:101098003B943C943D9639A9194801F097F84FF4D0
:1010A800807339933A953B943C940D233D9339A929
:1010B800404601F08BF839973A953B943C943D961D
:1010C80039A9104801F082F822460621582000F07C
:1010D8001DFC582000F050FC0AE700F049F822E710
:1010E8000010005000440258001002580020025816
:1010F800001402580008025800000258001C025848
:1011080000180258000C025830B585B0002400942D
:1011180001940294039400F051FC01238DF80030EF
:1011280002228DF801204FF04042019218228DF8DA
:1011380008208DF809408DF80A4003228DF80B200D
:101148008DF80C408DF80D408DF80E308DF80F405D
:10115800684600F051FC04258DF801508DF80940CF
:10116800684600F049FC284600F036FC05B030BD62
:1011780072B6FEE700B59DB04C22002109A806F022
:10118800E3F92022002101A806F0DEF9022001F08F
:101198001DFB00230093294B9A6942F440429A614F
:1011A8009B6903F440430093254BDA6A42F001023D
:1011B800DA62DB6A03F001030093009B1F4B9B6913
:1011C80013F4005FFAD01F4A936A23F0030343F035
:1011D80002039362012309934FF480330A93022395
:1011E8001293139305221492C02115911693179206
:1011F80018930823199300231A931B9309A801F045
:101208000FFBB8B93F2301930323029300230393F1
:10121800082304934023059306934FF480620792B2
:10122800089304210DEB010001F02AFF20B91DB03D
:101238005DF804FBFFF79CFFFFF79AFF0048025890
:10124800000400580044025808B5FFF75DFF2C4B16
:101258005B6913F4003F13D1BFF34F8FBFF36F8F58
:10126800274B0022C3F85022BFF34F8FBFF36F8F75
:101278005A6942F400325A61BFF34F8FBFF36F8F40
:101288001F4B5B6913F4803F27D11D4B0022C3F825
:101298008420BFF34F8FD3F88040C4F34E3000E072
:1012A8001846C4F3C90243F6E07303EA401343EA5D
:1012B80082731349C1F860321346013A002BF2D108
:1012C800431E0028ECD1BFF34F8F4B6943F48033A2
:1012D8004B61BFF34F8FBFF36F8F00F0ABFAFFF78F
:1012E80049FFFFF7EDFCFFF797FDFFF7A9FCFFF7B4
:1012F800EFFB00F0EFF900F005F800F0A1F9FEE7C8
:1013080000ED00E008B50A480A4B0360002343607B
:1013180083604FF48043C3604FF4003303610223BA
:10132800436104F06AF900B908BDFFF721FFFBE744
:10133800A0050020007000522DE9F041B8B0044625
:10134800002133913491359136913791BC2204A80C
:1013580006F0FAF82268334B9A4202D038B0BDE85A
:10136800F0814FF48033049304A802F025F9002893
:1013780054D12D4BD3F8D42042F48032C3F8D42072
:10138800D3F8D42002F480320192019AD3F8E020F5
:1013980042F00402C3F8E020D3F8E02002F004028F
:1013A8000292029AD3F8E02042F00802C3F8E02043
:1013B800D3F8E03003F008030393039B4FF48073E2
:1013C80033930227349701233593032636960C2549
:1013D8003795DFF8588033A9404600F0F7FE4FF400
:1013E800F05333933497002435943696379533A9C0
:1013F800404600F0EBFE0423339334973594369639
:10140800379533A90A4800F0E1FE224621463120EB
:1014180000F07CFA312000F0AFFA9FE7FFF7A8FE52
:10142800A7E700BF007000520044025800080258A5
:10143800000C025882B0074BD3F8F42042F00202A5
:10144800C3F8F420D3F8F43003F002030193019BAE
:1014580002B0704700440258FEE7FEE7FEE7FEE7E9
:10146800FEE770477047704708B500F011FA08BDED
:1014780008B5024804F0CAFD08BD00BF6806002090
:1014880008B5024804F059FA08BD00BFC40400209A
:1014980008B5024804F012F908BD00BFA0050020F5
:1014A80008B5024801F0F1F808BD00BFF8040020B3
:1014B80008B5024800F0ECFD08BD00BF5804002044
:1014C800264B1B6803F00F03062B06D8234A136824
:1014D80023F00F0343F007031360214B1A6842F00F
:1014E80001021A6000221A6119681E4A0A401A602D
:1014F8001A4B1B6813F0080F06D0184A136823F01C
:101508000F0343F007031360154B00229A61DA6159
:101518001A62154999621549D962154919635A63BE
:101528009963DA6319645A64196821F4802119608F
:101538001A66104B1A68104B1340B3F1005F03D2C0
:101548000E4B0122C3F808210D4B43F2D2021A6058
:101558000C4B4FF000629A60704700BF00200052A9
:10156800004402587FEDF6EA000202020000FF0183
:10157800800201010010005C0000FFFF00800051A4
:101588000040005200ED00E00368B3F1804F00D046
:10159800704782B0074BD3F8E82042F00102C3F845
:1015A800E820D3F8E83003F001030193019B02B06F
:1015B800704700BF0044025830B589B00023039338
:1015C80004930593069307930368B3F1804F01D002
:1015D80009B030BD174BD3F8E02042F00102C3F840
:1015E800E020D3F8E02002F001020192019AD3F83A
:1015F800E02042F00202C3F8E020D3F8E03003F024
:1016080002030293029B4FF40043039302250495BF
:101618000124079403A9084800F0D8FD0823039380
:101628000495002305930693079403A9034800F043
:10163800CDFDCDE7004402580000025800040258CE
:1016480000B58BB000230793089309930093019387
:10165800029303930493059306931D484FF0804229
:10166800026040F65F12426083606422C2600361D8
:10167800836104F039FBF8B900230793099307A99C
:10168800134804F03FFCD0B9602300930123019371
:1016980000220292049269460D4804F09FFB88B923
:1016A800042269460A4804F099FB70B90848FFF714
:1016B80083FF0BB05DF804FBFFF75AFDDCE7FFF78B
:1016C80057FDE1E7FFF754FDEAE7FFF751FDEDE7C6
:1016D8001C06002008B51748174B03604FF4E13388
:1016E800436000238360C36003610C22426183610D
:1016F800C36103624362836205F01DFA70B9002179
:101708000C4805F093FA60B900210A4805F0B3FACD
:1017180050B9084805F06BFA48B908BDFFF728FD2D
:10172800EDE7FFF725FDEFE7FFF722FDF1E7FFF70C
:101738001FFDF2E7680600200010014010B5B6B0A2
:101748000446002131913291339134913591BC2274
:1017580002A805F0F9FE22681F4B9A4201D036B064
:1017680010BD0123029302A801F026FF80BB1B4B8A
:10177800D3F8F02042F01002C3F8F020D3F8F0209C
:1017880002F010020092009AD3F8E02042F0010221
:10179800C3F8E020D3F8E03003F001030193019B84
:1017A8004FF4C0633193022332930123339303230D
:1017B80034930723359331A9094800F007FD002227
:1017C8001146252000F0A2F8252000F0D5F8C6E73C
:1017D800FFF7CEFCCBE700BF0010014000440258E1
:1017E80000000258104B1B780BB90120704710B548
:1017F80004464FF47A70B0FBF3F30C4A1068B0FB60
:10180800F3F000F0C7F868B90F2C01D901200AE0FD
:10181800002221464FF0FF3000F078F8044B1C609E
:10182800002000E0012010BD08000020000000207A
:101838000C00002010B5032000F056F801F014FB4E
:101848000F498B69C3F303230E4AD35C03F01F03CC
:10185800D8408B6903F00F03D35C03F01F0320FA11
:1018680003F3094A1360094B18600F20FFF7BAFF0A
:1018780010B10124204610BD0446FFF7DBFDF9E74F
:1018880000440258EC760008040000200000002004
:10189800034B1B78034A11680B441360704700BF61
:1018A80008000020F8060020014B1868704700BFA8
:1018B800F806002038B50446FFF7F6FF0546B4F1F0
:1018C800FF3F02D0044B1B781C44FFF7EDFF401B81
:1018D800A042FAD338BD00BF08000020014B1868A9
:1018E800000C70470010005C0649CB6823F4E063E5
:1018F8001B041B0C000200F4E0600343024A1A4375
:10190800CA60704700ED00E00000FA0500B5174B0B
:10191800DB68C3F30223C3F1070CBCF1040F28BF33
:101928004FF0040C03F1040EBEF1060F14D9033B6B
:101938004FF0FF3E0EFA0CFC21EA0C0199400EFA1A
:1019480003F322EA03031943002807DB0901C9B29C
:10195800074B19545DF804FB0023E9E700F00F007A
:101968000901C9B2034B1954F4E700BF00ED00E0C8
:1019780000E400E014ED00E0002807DB00F01F029F
:10198800400901239340024A42F82030704700BFC3
:1019980000E100E00138B0F1807F0BD24FF0E02386
:1019A8005861054AF02182F8231000209861072227
:1019B8001A6170470120704700ED00E0BFF35F8FA8
:1019C800044B5A6A22F480325A620022C3F89420E7
:1019D800704700BF00ED00E040F00100054BC3F880
:1019E80094005A6A42F480325A62BFF34F8FBFF3B1
:1019F8006F8F704700ED00E04278164BC3F89820CF
:101A08000378FBB14368134AC2F89C30017BC37A60
:101A18001B0643EA0173817A43EAC143417B43EAE7
:101A28008143817B43EA4143C17B43EA0143417AD5
:101A380043EA0123017A43EA410301780B43C2F8E0
:101A4800A0307047034B0022C3F89C20C3F8A020A5
:101A5800704700BF00ED00E070B50446FFF724FFB3
:101A6800002C00F09181054694F83530DBB2022B4A
:101A780006D080236365002384F83430012070BDCC
:101A880023688C498C4A934218BF8B4230D0183255
:101A980093422DD0183293422AD01832934227D03D
:101AA8001832934224D01832934221D018329342EC
:101AB8001ED002F5567293421AD01832934217D0AC
:101AC8001832934214D01832934211D018329342EC
:101AD8000ED0183293420BD01832934208D01832E5
:101AE800934205D01A6822F00E021A60266809E0AF
:101AF8001A6822F01E021A602268536923F08003D4
:101B08005361266823686B496B4A934218BF8B421E
:101B180042D0183293423FD0183293423CD0183208
:101B2800934239D01832934236D01832934233D088
:101B38001832934230D002F5567293422CD01832A4
:101B4800934229D01832934226D01832934223D098
:101B58001832934220D0183293421DD01832934243
:101B68001AD01832934217D0544A934214D01432E0
:101B7800934211D0143293420ED0143293420BD0B8
:101B88001432934208D01432934205D0143293424F
:101B980002D01432934204D1226E136823F4807366
:101BA800136023684349444A934218BF8B422FD09D
:101BB800183293422CD01832934229D018329342CB
:101BC80026D01832934223D01832934220D01832AC
:101BD80093421DD002F55672934219D0183293429F
:101BE80016D01832934213D01832934210D01832BC
:101BF80093420DD0183293420AD01832934207D03C
:101C08001832934204D01A6822F001021A6003E0E5
:101C18001A6822F001021A60336813F0010F0ED01F
:101C2800FFF742FE431B052BF6D9202363650023EB
:101C380084F83430032384F8353001201FE7236803
:101C48001C491D4A934218BF8B4239D0183293421F
:101C580036D01832934233D01832934230D01832EB
:101C680093422DD0183293422AD01832934227D06B
:101C780002F55672934223D01832934220D018327C
:101C880093421DD0183293421AD01832934217D07B
:101C98001832934214D01832934211D0183293421A
:101CA8000ED0A16DE36D03F01F02012393404B603A
:101CB8000DE000BF100002402800024008540258FE
:101CC800A16DE36D03F01F023F2393408B602368EF
:101CD8002E492F4A934218BF8B4242D01832934262
:101CE8003FD0183293423CD01832934239D0183240
:101CF800934236D01832934233D01832934230D0C0
:101D080002F5567293422CD01832934229D01832D9
:101D1800934226D01832934223D01832934220D0CF
:101D2800183293421DD0183293421AD01832934277
:101D380017D0184A934214D01432934211D0143257
:101D480093420ED0143293420BD01432934208D0EF
:101D58001432934205D01432934202D01432934283
:101D68000BD1636EA26E5A60E36E33B11A6822F427
:101D780080721A60236F626F5A60002084F8340002
:101D8800012384F835307AE6012078E61000024015
:101D98002800024008540258002800F0298108B59C
:101DA800024690F83530DBB2022B03D0802343651E
:101DB800012008BD0368904890498B4218BF8342B0
:101DC8000CBF0121002166D03030834263D0183027
:101DD800834260D0183083425DD0183083425AD095
:101DE8001830834257D01830834254D000F55670CB
:101DF800834250D0183083424DD0183083424AD0A5
:101E08001830834247D01830834244D01830834278
:101E180041D0183083423ED0183083423BD01968F5
:101E280021F00E0119601368A0F5956073498B4283
:101E380018BF83426AD072498B4267D018318B42EF
:101E480064D018318B4261D018318B425ED0183182
:101E58008B425BD018318B4258D001F556718B42BA
:101E680054D018318B4251D018318B424ED0183192
:101E78008B424BD018318B4248D018318B4245D019
:101E880018318B4242D018318B423FD0196821F06B
:101E9800010119603EE0042082F8350081BB584AF0
:101EA80093422DD0183293422AD01832934227D029
:101EB8001832934224D01832934221D018329342D8
:101EC8001ED002F5567293421AD01832934217D098
:101ED8001832934214D01832934211D018329342D8
:101EE8000ED0183293420BD01832934208D01832D1
:101EF800934205D01A6822F001021A60002058E7C0
:101F08001A6822F001021A60002052E7196821F0CD
:101F1800010119601368384838498B4218BF834259
:101F280042D018318B423FD018318B423CD0183107
:101F38008B4239D018318B4236D018318B4233D08E
:101F480018318B4230D001F556718B422CD01831A4
:101F58008B4229D018318B4226D018318B4223D09E
:101F680018318B4220D018318B421DD018318B424A
:101F78001AD018318B4217D022498B4214D0143111
:101F88008B4211D014318B420ED014318B420BD0BE
:101F980014318B4208D014318B4205D014318B4256
:101FA80002D014318B4217D1116E0B6823F4807361
:101FB8000B60906DD36D03F01F0101238B404360CC
:101FC800536E916E5960D36E33B1196821F48071E4
:101FD8001960136F516F5960002382F83430012360
:101FE80082F83530136D2BB1104698470020E0E693
:101FF800012070470020DCE6100002402800024063
:102008004000024008540258002837D010B5044652
:1020180090F86130002B2CD0022384F861302168BD
:102028000A68174B13406268E069024313430B6068
:1020380021684A6B134B1340A268A06902431343FB
:102048004B632268116C104B0B40E1680B4313641F
:1020580021684B6B23F4401320696269520542EAF8
:10206800005213434B6300206066012384F86130FB
:1020780010BD80F86030FEF741FDCDE701207047C4
:10208800BFFFF8FFF8FEFFFF0000FFFF7047704733
:1020980070B5044603685D681E6815F0010F16D018
:1020A80016F4807F13D01A6822F480721A60436E87
:1020B80043F001034366036801229A60042380F811
:1020C8006130002380F86030436A03B1984715F007
:1020D800200F18D016F4005F15D02268136823F477
:1020E80000531360236820229A60636E43F0020352
:1020F8006366042384F86130002384F86030636ADF
:102108000BB12046984715F0080F18D016F4006F49
:1021180015D02268136823F400631360236808222B
:102128009A60636E43F004036366042384F86130A5
:10213800002384F86030636A0BB12046984715F095
:10214800040F02D016F4806F20D115F0020F16D0BC
:1021580016F4007F13D02268136823F40073136009
:10216800236802229A60636E6366012384F86130F3
:10217800002384F86030236A0BB12046984715F095
:10218800100F02D016F4805F0CD170BD226813685E
:1021980023F480631360236804229A602046FFF7C3
:1021A80075FFD2E72268136823F48053136023680D
:1021B80010229A60636E6366012384F861300023FD
:1021C80084F860302046FFF762FFDEE7F0B583B0A1
:1021D800002340E0092400E00024B44044EA0C0451
:1021E8000235764E46F825404FF0B044D4F880507A
:1021F800D44325EA02064F6817F4803F01D042EA2B
:1022080005064FF0B045C5F88060D5F8845004EA5B
:1022180005064F6817F4003F01D042EA05064FF063
:10222800B045C5F884602D6804EA05064F6817F4C0
:10223800801F01D042EA05064FF0B0452E606D6858
:102248002C404E6816F4001F01D042EA05044FF0F6
:10225800B042546001330A6832FA03F400F0AB80EC
:102268004FF0010C0CFA03FC1CEA0202F2D04C6895
:10227800651E112C18BF012D01D9122C13D18568A8
:102288005E000324B44025EA0405CC68B4402C431E
:102298008460446824EA0C0C4C68C4F300149C4025
:1022A80044EA0C044460C6684FEA430C032505FA67
:1022B8000CF5EC4326EA050E8D6805FA0CF545EA9F
:1022C8000E05C5604D68122D18BF022D12D1DE080B
:1022D800083650F8267003F007054FEA850E0F25DB
:1022E80005FA0EF527EA05070D6905FA0EF53D43CF
:1022F80040F82650056825404C6804F0030404FAA9
:102308000CF42C4304604C6814F0805FA2D02C4C71
:10231800D4F8F45045F00205C4F8F450D4F8F44069
:1023280004F002040194019C9D08AE1C234C54F84F
:10233800267003F00304A6000F24B44027EA040C17
:10234800204CA0423FF448AF04F58064A04222D05C
:1023580004F58064A04220D004F58064A0421ED019
:1023680004F58064A0421CD004F58064A0421AD011
:1023780004F58064A04218D004F58064A04216D009
:1023880004F58064A04214D004F58064A0423FF4B0
:1023980021AF0A2421E701241FE702241DE70324B3
:1023A8001BE7042419E7052417E7062415E7072483
:1023B80013E7082411E703B0F0BD00BF000400587C
:1023C80000440258000002580AB1816170470904AC
:1023D80081617047F0B54D680468E368C3F30B4347
:1023E8001D444FEAC21C04EBC214D4F8883003F42D
:1023F8007043C4F888300B680468E668C6F30B4677
:102408003344013304EBC21443EA0543C4F888306B
:10241800CD680468E368C3F30A031D4404EBC21ED5
:10242800DEF88C3003F47043CEF88C308B68046887
:10243800E668C6F30A0E7344013304EBC21443EA98
:102448000543C4F88C30036803EBC213D3F89440F7
:1024580024F00704C3F89440036803EBC2130C6923
:10246800C3F8944091F8317091F832608D6904682E
:1024780004EBC21404F1840ED4F89C300024CEF886
:10248800184091F8303043EA072343EA06430668C8
:1024980006EBC21E43EA0563CEF89C300EF1840EAB
:1024A800036803EBC213D3F8985025F0FF05C3F86F
:1024B8009850036803EBC2134D69C3F8985003683A
:1024C80003EBC213D3F8A0602E4D3540C3F8A050DB
:1024D8000D6A036803EBC213CE693543C3F8A050F5
:1024E800036803EBC213D3F8AC50C3F8AC400368DD
:1024F80003EBC2124B6AC2F8AC300B696BB1012B0B
:1025080039D0022B18BF042B37D0032B37D0072B19
:1025180001D0012502E0022500E00425026862449A
:10252800D2F8B04004F0E024C2F8B0408A6A05FB53
:1025380002F44B680A689B1A05FB03F30733026829
:10254800624443EA0443C2F8B03003686344D3F8F2
:10255800B4400D4A2240C3F8B42003686344CA6AF1
:10256800C3F8B42003689C44DCF8843043F00103CA
:10257800CCF88430F0BD0325D0E70225CEE702254C
:10258800CCE700BFF8F8FFFF00F8FFFF002875D080
:1025980010B5044690F8A130002B6AD0022384F8C5
:1025A800A1302268936923F07043936121688A6996
:1025B8006368A0680343E068034320690343134347
:1025C8008B6121688A682E4B1A408A60206882686D
:1025D800A169D4F814C041EA0C410A438260216819
:1025E800CA681A40CA602068C268216AD4F81CC048
:1025F80041EA0C410A43C26021680A691A400A612B
:1026080020680269A16AD4F824C041EA0C410A434F
:10261800026121684A6913404B61E06A21684B698D
:10262800226B42EA004213434B6194F8350094F858
:1026380036301B042168CA6A02F07F42CA622168E8
:10264800CA6A43EA002394F8340003431343CB6275
:102658002268536B43F0060353632268936943F07F
:10266800010393610020C4F8A400012384F8A13079
:1026780010BD80F8A030FEF729FC8FE701207047D5
:1026880000F800F070477047704770B5044603685B
:102698009D6B5E6B15F0040F02D016F0040F12D17B
:1026A80015F0020F02D016F0020F21D115F0010F1C
:1026B80002D016F0010F32D115F0080F02D016F033
:1026C800080F3DD170BD5A6B22F004025A630368AB
:1026D8000422DA63D0F8A43043F00103C0F8A43030
:1026E80080F8A120002380F8A030FFF7CBFFD7E7C0
:1026F8002268536B23F00203536323680222DA63D0
:10270800D4F8A4301343C4F8A430042384F8A130C7
:10271800002384F8A0302046FFF7B4FFC6E72268FC
:10272800536B23F00103536322680123D36384F8B6
:10273800A130002384F8A0302046FFF7A4FFBBE7B0
:102748002268536B23F00803536323680822DA6373
:10275800012384F8A130002384F8A0302046FFF735
:1027680093FFAFE7F8B590F8A030012B2CD00446C2
:102778000D461646012780F8A070022380F8A13084
:102788004FF0340C0CFB020C0CF1380C8E46BEE8F2
:102798000F00ACE80F00BEE80F00ACE80F00BEE881
:1027A8000F00ACE80F00DEF80030CCF800303246FD
:1027B80029462046FFF70EFE23685F6284F8A17061
:1027C800002084F8A000F8BD0220FCE7134BDB686A
:1027D80013F0040F07D1114BDB6803F007038342A2
:1027E8001AD00120704710B50C4AD36823F00703AC
:1027F8001843D060FFF758F80446084B5B6813F499
:10280800005F07D1FFF750F8001BB0F57A7FF4D9C5
:10281800012000E0002010BD002070470048025849
:10282800002800F0028338B50446036813F0010F4E
:1028380025D09C4A136903F03803926A102B15D0EF
:10284800182B0FD06368B3F5803F3FD0002B53D1CE
:10285800944B1A6822F480321A601A6822F4802293
:102868001A6038E002F00302022AEBD18D4B1B6894
:1028780013F4003F03D06368002B00F0D88223686C
:1028880013F0020F00F08B80864A1369926A13F0E6
:1028980038035AD0182B55D0E368002B00F0C880B5
:1028A80080490A6822F0190213430B60FEF7FCFF07
:1028B80005467C4B1B6813F0040F40F09780FEF729
:1028C800F3FF401B0228F4D90320B7E2754A1368C6
:1028D80043F48033136063682BB3FEF7E5FF0546C6
:1028E800704B1B6813F4003FC9D1FEF7DDFF401B96
:1028F8006428F5D90320A1E2B3F5A02F09D0694BCC
:102908001A6822F480321A601A6822F480221A6047
:10291800E1E7644B1A6842F480221A601A6842F4AC
:1029280080321A60D7E7FEF7BFFF05465D4B1B688C
:1029380013F4003FA3D0FEF7B7FF401B6428F5D976
:1029480003207BE212F0030FA6D1564B1B6813F04D
:10295800040F03D0E368002B00F06B82FEF7BEFF84
:1029680041F20303984212D82269402A07D04D4900
:102978004B6823F47C3343EA02334B600FE0494A47
:10298800536823F47C3343F40033536007E0454A2B
:10299800536823F0FE43216943EA016353602368C7
:1029A80013F0100F00F088803E4A136903F03803D3
:1029B800926A082B54D0182B4ED0E369002B00F0F4
:1029C800B880384A136843F080031360FEF76CFF41
:1029D8000546344B1B6813F4807F40F08880FEF76F
:1029E80063FF401B0228F4D9032027E2FEF776FF95
:1029F80041F20303984212D82269402A07D0294994
:102A08004B6823F47C3343EA02334B60C7E7254A1B
:102A1800536823F47C3343F400335360BFE7214AFF
:102A2800536823F0FE43216943EA01635360B6E724
:102A38001C4A136823F001031360FEF735FF0546AF
:102A4800184B1B6813F0040FA9D0FEF72DFF401B8D
:102A58000228F5D90320F1E102F00302012AACD1E2
:102A6800104B1B6813F4807F03D0E369802B40F080
:102A7800E281FEF733FF41F20303984214D8226A39
:102A8800202A07D007494B6823F0F84343EA8263BA
:102A98004B6011E0034A536823F0F84343F0804346
:102AA800536009E0004402589A4AD36823F07C53E3
:102AB800216A43EA0163D360236813F0080F60D0EA
:102AC8006369002B49D0934A536F43F0010353675E
:102AD800FEF7EAFE05468F4B5B6F13F0020F50D1ED
:102AE800FEF7E2FE401B0228F5D90320A6E1FEF717
:102AF800F5FE41F20303984212D8226A202A07D031
:102B080084494B6823F0F84343EA82634B60D3E778
:102B1800804A536823F0F84343F080435360CBE77F
:102B28007C4AD36823F07C53216A43EA0163D3606B
:102B3800C2E7784A136823F080031360FEF7B4FEF7
:102B48000546744B1B6813F4807FB5D0FEF7ACFEC6
:102B5800401B0228F5D9032070E16E4A536F23F019
:102B680001035367FEF7A0FE05466A4B5B6F13F03F
:102B7800020F06D0FEF798FE401B0228F5D9032065
:102B88005CE1236813F0200F29D0A3699BB1614A47
:102B9800136843F480531360FEF786FE05465D4BC9
:102BA8001B6813F4005F1AD1FEF77EFE401B022853
:102BB800F5D9032042E1574A136823F48053136080
:102BC800FEF772FE0546534B1B6813F4005F06D0F0
:102BD800FEF76AFE401B0228F5D903202EE1236880
:102BE80013F0040F21D1636A002B00F02681494AB3
:102BF800126902F03802182A00F0EE80022B75D014
:102C0800444A136823F080731360FEF74DFE0446B0
:102C1800404B1B6813F0007F00F0DC80FEF744FE99
:102C2800001B0228F4D9032008E13B4A136843F447
:102C380080731360FEF738FE0546374B1B6813F4A4
:102C4800807F06D1FEF730FE401B6428F5D90320AB
:102C5800F4E0A368012B0AD00BBB2E4B1A6F22F0AD
:102C680001021A671A6F22F004021A6704E0294A5F
:102C7800136F43F001031367A36833B3FEF714FE21
:102C88000546244B1B6F13F0020FACD1FEF70CFE68
:102C9800401B41F288339842F3D90320CEE0052B3C
:102CA80009D01C4B1A6F22F001021A671A6F22F022
:102CB80004021A67E0E7174B1A6F42F004021A671A
:102CC8001A6F42F001021A67D6E7FEF7EDFD0546D6
:102CD800104B1B6F13F0020F85D0FEF7E5FD401B6C
:102CE80041F288339842F3D90320A7E0094A1368D0
:102CF80023F080731360FEF7D7FD0546054B1B686C
:102D080013F0007F0AD0FEF7CFFD401B0228F5D94B
:102D1800032093E000440258004802584F4B996A38
:102D28004F4A0A40A16AE06A41EA00110A439A62DE
:102D3800226B013AC2F30802616B0139490289B278
:102D48000A43A16B0139090401F4FE010A43E16B4E
:102D58000139090601F0FE410A431A63DA6A22F0D2
:102D68000102DA62596B3F4A0A40A16C42EAC10289
:102D78005A63DA6A22F00C02216C0A43DA62DA6AD0
:102D880022F00202616C0A43DA62DA6A42F48032A3
:102D9800DA62DA6A42F40032DA62DA6A42F48022EB
:102DA800DA62DA6A42F00102DA621A6842F0807284
:102DB8001A60FEF779FD0446284B1B6813F0007F64
:102DC80006D1FEF771FD001B0228F5D9032035E076
:102DD800002033E0002031E0204A916A106B012B7B
:102DE8002DD001F00303A26A93422AD1C1F3051141
:102DF800E36A994227D1C0F30802236B013B9A4248
:102E080023D1C0F34622636B013B9A421FD1C0F322
:102E18000642A36B013B9A421BD1C0F30660E36BE9
:102E2800013B984217D1002008E00120704701209B
:102E380004E0012002E0012000E0002038BD01206C
:102E4800FCE70120FAE70120F8E70120F6E7012076
:102E5800F4E70120F2E70120F0E700BF0044025840
:102E68000CFCFFFF0700FFFFF8B57E4B1B6903F062
:102E78003803102B00F0F280182B10D013B17A4CC5
:102E88002046F8BD774B1B6813F0200F00F0E88050
:102E9800744B1868C0F3C100744CC440F0E7714B20
:102EA8009D6A05F003059C6AC4F30514D86A00F00E
:102EB80001005B6BC3F3CC0303FB00F0FDF7BEFA24
:102EC8000646002CDCD0012D76D0022D00F0A4801F
:102ED8000DB32046FDF7B2FA01466548FDF7BAFB87
:102EE8000446604B186BC0F30800FDF7A7FA0546C7
:102EF8004FF064513046FDF7F9FA01462846FDF7D0
:102F0800EDF94FF07E51FDF7E9F901462046FDF74E
:102F1800EDFA044671E0534B1B6813F0200F29D0DB
:102F2800504F3B68C3F3C1035048D840FDF786FAB9
:102F380005462046FDF782FA01462846FDF78AFB3A
:102F48000446386BC0F30800FDF778FA05464FF0E1
:102F580064513046FDF7CAFA01462846FDF7BEF926
:102F68004FF07E51FDF7BAF901462046FDF7BEFA4B
:102F7800044642E02046FDF761FA01463D48FDF768
:102F880069FB0446374B186BC0F30800FDF756FA87
:102F980005464FF064513046FDF7A8FA0146284629
:102FA800FDF79CF94FF07E51FDF798F90146204650
:102FB800FDF79CFA044620E02046FDF73FFA01465B
:102FC8002B48FDF747FB0446264B186BC0F3080057
:102FD800FDF734FA05464FF064513046FDF786FA9E
:102FE80001462846FDF77AF94FF07E51FDF776F94C
:102FF80001462046FDF77AFA04461A4B1B6BC3F3C9
:103008004623581CFDF71AFA01462046FDF722FB15
:10301800FDF7BCFB044633E72046FDF70FFA0146EF
:103028001548FDF717FB04460E4B186BC0F3080054
:10303800FDF704FA05464FF064513046FDF756FA9D
:1030480001462846FDF74AF94FF07E51FDF746F94B
:1030580001462046FDF74AFA0446CEE7074C0FE73B
:10306800024C0DE70044025800093D000090D003CF
:103078000024744A0024744C20BCBE4B40787D0167
:10308800002800F0328170B50D4604469B4B1B6842
:1030980003F00F038B420BD2984A136823F00F03F7
:1030A8000B431360136803F00F038B4240F01F813A
:1030B800236813F0040F0CD02269914B9B6903F02D
:1030C80070039A4205D98E498B6923F070031A431D
:1030D8008A61236813F0080F0CD06269884BDB699A
:1030E80003F070039A4205D98549CB6923F0700330
:1030F8001A43CA61236813F0100F0CD0A269804BE1
:10310800DB6903F4E0639A4205D97D49CB6923F46E
:10311800E0631A43CA61236813F0200F0CD0E269F8
:10312800774B1B6A03F070039A4205D974490B6AFE
:1031380023F070031A430A62236813F0020F0CD0BD
:10314800E2686F4B9B6903F00F039A4205D96C49FB
:103158008B6923F00F031A438A61236813F0010F68
:1031680041D0674A936923F47063A1680B43936164
:103178006368022B0AD0032B27D0012B2CD0604A7E
:10318800126812F0040F06D10120ADE0126812F4A3
:10319800003F00F0AE805A490A6922F00702134343
:1031A8000B61FEF781FB0646554B1B6903F038039C
:1031B8006268B3EBC20F16D0FEF776FB801B41F2B4
:1031C80088339842F0D903208EE04D4A126812F0F5
:1031D800007FE0D1012087E0494A126812F4807F1D
:1031E800D9D1012080E0236813F0020F0CD0E268E7
:1031F800434B9B6903F00F039A4205D240498B6900
:1032080023F00F031A438A613C4B1B6803F00F033A
:10321800AB420AD9394A136823F00F032B431360D2
:10322800136803F00F03AB4265D1236813F0040F52
:103238000CD02269324B9B6903F070039A4205D285
:103248002F498B6923F070031A438A61236813F0AE
:10325800080F0CD062692A4BDB6903F070039A42AD
:1032680005D22749CB6923F070031A43CA61236842
:1032780013F0100F0CD0A269214BDB6903F4E06353
:103288009A4205D21E49CB6923F4E0631A43CA6106
:10329800236813F0200F0CD0E269194B1B6A03F066
:1032A80070039A4205D216490B6A23F070031A4339
:1032B8000A62FFF7D9FD12498B69C3F30323114A48
:1032C800D35C03F01F03D8408B6903F00F03D35C72
:1032D80003F01F0320FA03F30B4A13600B4B18602B
:1032E8000B4B1868FEF77EFA70BD0120704701206D
:1032F800FAE70120F8E70120F6E700BF00200052B6
:1033080000440258EC760008040000200000002069
:103318000C00002008B5FFF7A7FD0B4A9369C3F31B
:1033280003230A49CB5C03F01F0320FA03F39269D5
:1033380002F00F02885C00F01F0023FA00F0044A34
:103348001060044A136008BD00440258EC76000877
:10335800040000200000002008B5FFF7DBFF054B44
:10336800DB69C3F30213044AD35C03F01F03D8409C
:1033780008BD00BF00440258EC76000808B5FFF706
:10338800C9FF054BDB69C3F30223044AD35C03F08E
:103398001F03D84008BD00BF00440258EC7600085F
:1033A800404B9B6A03F00303032B79D070B50546A5
:1033B8000E463C4A136823F080631360FEF774FAE4
:1033C8000446384B1B6813F0006F06D0FEF76CFA02
:1033D800031B022BF5D9032070BD324B9A6A22F4E5
:1033E8007C32296842EA01329A626A68013AC2F379
:1033F8000802A9680139490289B20A43E968013912
:10340800090401F4FE010A4329690139090601F09A
:10341800FE410A439A63DA6A22F0C00269690A43E4
:10342800DA62DA6A22F02002A9690A43DA62DA6A01
:1034380022F01002DA62D96B1B4A0A40E96942EAB3
:10344800C102DA63DA6A42F01002DA62C6B91A46D1
:10345800DB6A43F40023D362124A136843F08063A3
:103468001360FEF721FA04460E4B1B6813F0006F39
:1034780014D1FEF719FA001B0228F5D90320ABE78F
:10348800012E05D0074AD36A43F40013D362E3E759
:10349800044AD36A43F48013D362DDE700209BE734
:1034A80001207047004402580700FFFF404B9B6A09
:1034B80003F00303032B79D070B505460E463C4A4A
:1034C800136823F080531360FEF7EEF90446384B77
:1034D8001B6813F0005F06D0FEF7E6F9031B022B0A
:1034E800F5D9032070BD324B9A6A22F07C722968A4
:1034F80042EA01529A626A68013AC2F30802A9686C
:103508000139490289B20A43E9680139090401F419
:10351800FE010A4329690139090601F0FE410A43FF
:103528001A64DA6A22F4406269690A43DA62DA6A7A
:1035380022F40072A9690A43DA62DA6A22F4807214
:10354800DA62596C1B4A0A40E96942EAC1025A64C4
:10355800DA6A42F48072DA62C6B91A46DB6A43F460
:103568008003D362124A136843F080531360FEF756
:103578009BF904460E4B1B6813F0005F14D1FEF74D
:1035880093F9001B0228F5D90320ABE7012E05D0DB
:10359800074AD36A43F08073D362E3E7044AD36AE5
:1035A80043F40003D362DDE700209BE70120704766
:1035B800004402580700FFFFF8B50446036813F0FB
:1035C800006F30D0436EB3F5001F26D00ED8EBB194
:1035D800B3F5801F07D102210430FFF7E1FE05464D
:1035E80045B12E4621E0012635461EE0B3F5401FC1
:1035F80009D10025954A136D23F44013616E0B43DE
:103608001365002611E0012635460EE08F4AD36A7D
:1036180043F40033D3620025ECE702212430FFF79E
:1036280045FF0546DCE700263546236813F4807F0E
:1036380014D0636D042B30D8DFE803F00322280888
:103648000800824AD36A43F40033D36245BB7F4AF9
:10365800136D23F00703616D0B431365236813F49F
:10366800007F2FD0A36D802B49D01ED8002B40D0CF
:10367800402B17D10021201DFFF792FE054619E0C7
:103688000021201DFFF78CFE0546DFE7002104F12D
:103698002400FFF70BFF0546D8E701263546DDE78E
:1036A8002E46DBE7012635460CE0C02B02D0B3F5E9
:1036B800807F1BD155BB654A136D23F4E073A16D60
:1036C8000B431365236813F4806F45D0D4F8A430F6
:1036D800B3F5800F38D01ED883B3B3F5001F17D1C8
:1036E8000021201DFFF75CFE05461AE0012635463D
:1036F800E8E7564AD36A43F40033D362DAE7002195
:1037080004F12400FFF7D2FE0546D3E72E46D9E799
:103718000126354620E0B3F5C00F02D0B3F5000FFF
:1037280009D1C5B9494A936D23F46003D4F8A410AC
:103738000B43936510E0012635460DE0434AD36AF2
:1037480043F40033D362ECE7002104F12400FFF7CF
:10375800ADFE0546E5E72E46236813F4006F23D037
:10376800D4F8A830B3F1007F41D00DD8002B38D061
:10377800B3F1807F05D10021201DFFF711FE05461A
:1037880008E0012635460FE0B3F1407F02D0B3F1DF
:10379800806F23D1002D31D12C4A936D23F0E06343
:1037A800D4F8A8100B439365236813F0007F2ED03C
:1037B800A36C202B3FD026D833B1102B20D1234A1D
:1037C800D36A43F40033D362002D3AD11F4AD36C35
:1037D80023F03003A16C0B43D36418E0012635466F
:1037E800E2E71A4AD36A43F40033D362D2E70021EE
:1037F80004F12400FFF75AFE0546CBE72E46D3E72F
:103808000126354603E0302BDED0012635462368F5
:1038180013F4805F2BD0E36DB3F5005F4CD017D85D
:10382800002B43D0B3F5805F0DD10021201DFFF799
:10383800B7FD054612E00221201DFFF7B1FD054640
:10384800C2E72E46E3E70126354610E00044025859
:10385800B3F5405F02D0B3F5804F24D1002D32D1AB
:10386800754A136D23F4E043E16D0B431365236838
:1038780013F4005F37D0236EB3F5003F51D027D83B
:103888003BB1B3F5803F20D10121201DFFF788FD12
:103898000546002D4CD1684A136D23F4E023216EB0
:1038A8000B4313651FE001263546E0E7624AD36AF9
:1038B80043F40033D362D1E7002104F12400FFF779
:1038C800F5FD0546CAE72E46D1E7012635460AE04A
:1038D800B3F5802FDDD0B3F5A02FDAD0B3F5403F94
:1038E800D7D001263546236813F4804F30D0D4F85A
:1038F800AC30B3F1005F44D01FD83BB1B3F1805F67
:1039080018D10121201DFFF74BFD0546002D3FD1A1
:10391800494A936D23F0E043D4F8AC100B43936508
:1039280016E0012104F12400FFF7C0FD0546B0E7C9
:103938002E46D8E7012635460AE0B3F1804FE5D098
:10394800B3F1A04FE2D0B3F1405FDFD00126354696
:10395800236813F4004F09D0E36EB3F1805F19D0E8
:10396800B3F1005F24D0D3B101263546236813F0A4
:10397800807F32D0636C032B59D8DFE803F026210F
:103988005226012104F12400FFF790FD0546BDE70A
:103998002E46DDE7284AD36A43F40033D3626DB973
:1039A800254A136D23F04053E16E0B431365DDE7A1
:1039B8000121201DFFF7F4FC0546F0E72E46D5E768
:1039C8001D4AD36A43F40033D3629DBB1A4AD36CB1
:1039D80023F00303616C0B43D364236813F4800F53
:1039E8002CD1236813F0010F00F0A380A36F282BBC
:1039F80000F29D80DFE803F08B9B9B9B9B9B9B9B2E
:103A0800869B9B9B9B9B9B9B949B9B9B9B9B9B9B1A
:103A18008B9B9B9B9B9B9B9B8B9B9B9B9B9B9B9B0E
:103A28008B000221201DFFF7BBFC0546CDE70126D0
:103A38003546D2E72E46D0E7004402588F4A13682D
:103A480043F480731360FDF72FFF07468B4B1B6809
:103A580013F4807F05D1FDF727FFC01B6428F5D933
:103A68000325002D4AD1864B1B6FD4F8B020534054
:103A780013F4407F0CD0824B1A6F22F44072196FF6
:103A880041F480311967196F21F4803119671A6779
:103A9800D4F8B030B3F5807F15D08DBBD4F8B030F2
:103AA80003F44072B2F5407F1ED0754A136923F4BF
:103AB8007C53136172490B6FD4F8B020C2F30B0228
:103AC80013430B678DE7FDF7EFFE07466C4B1B6F43
:103AD80013F0020FE1D1FDF7E7FEC01B41F2883376
:103AE8009842F3D90325D8E76548026922F47C5245
:103AF800644901EA131313430361DBE72E4670E7B9
:103B08002E466EE70121201DFFF74AFC0546E5B960
:103B18005B4A536D23F03803A16F0B43536508E0EC
:103B2800012104F12400FFF7C1FC0546EFE7012657
:103B38003546236813F0020F16D0636F052B27D87C
:103B4800DFE803F00A051F0A0A0A2E46F1E70121F9
:103B5800201DFFF725FC0546EDB9494A536D23F0B2
:103B68000703616F0B435365236813F0040F22D0DA
:103B7800D4F89030052B43D8DFE803F0140F3B143A
:103B88001414012104F12400FFF790FC0546E3E733
:103B980001263546E8E72E46E6E70121201DFFF716
:103BA800FFFB05467DBB364A936D23F00703D4F827
:103BB80090100B439365236813F0200F33D0D4F88B
:103BC8008C30B3F1005F4CD022D83BB1B3F1805FA9
:103BD8001BD10021201DFFF7E3FB0546002D47D12F
:103BE800274A536D23F0E043D4F88C100B435365F8
:103BF80019E0012104F12400FFF758FC0546D1E73C
:103C080001263546D7E72E46D5E7012635460AE090
:103C1800B3F1804FE2D0B3F1A04FDFD0B3F1405FF2
:103C2800DCD001263546236813F0400F37D0D4F88E
:103C38009830B3F5006F52D026D83BB1B3F5806FFA
:103C480018D10021201DFFF7ABFB0546002D4DD1F3
:103C58000B4A936D23F4E053D4F898100B43936503
:103C68001DE0022104F12400FFF720FC0546B5E71A
:103C78002E46D8E70126354611E000BF0048025815
:103C880000440258CFFFFF00B3F5805FDED0B3F5E4
:103C9800A05FDBD0B3F5406FD8D001263546236846
:103CA80013F0800F32D0D4F89C30B3F5804F00F079
:103CB8009D8020D83BB1B3F5005F19D10021201DAC
:103CC800FFF76EFB0546002D40F09780A54A936DDF
:103CD80023F46043D4F89C100B43936516E002214B
:103CE80004F12400FFF7E2FB0546AFE72E46D6E7CE
:103CF800012635460AE0B3F5004FE4D0B3F5204F6E
:103D0800E1D0B3F5C04FDED001263546236813F065
:103D1800080F0CD0D4F88030B3F5805F6FD0914A8B
:103D2800536D23F44053D4F880100B435365236834
:103D380013F0100F0CD0D4F89430B3F5807F67D00F
:103D4800884A936D23F44073D4F894100B43936519
:103D5800236813F4002F0BD0D4F8A030B3F5803FBC
:103D68006ED0B3F5003F61D0002B5AD001263546FE
:103D7800236813F4802F0CD0D4F88430B3F5001FD7
:103D880076D0B3F5401F69D0B3F5801F61D0012606
:103D98003546236813F4803F07D0E36C002B70D0BE
:103DA800B3F5803F7BD001263546236813F0005FCA
:103DB8007DD1236813F4003F00F08680E36FB3F5EC
:103DC800807F00F0C6807CD9B3F5007F03D0B3F5BF
:103DD800407F40F0BC80002D40F0C180614A536DA7
:103DE80023F44073E16F0B4353656DE0022104F146
:103DF8002400FFF75BFB054665E72E4686E70221B0
:103E080004F12400FFF752FB002888D0012686E73A
:103E1800022104F12400FFF749FB002890D0012675
:103E28008EE70021201DFFF7BBFA05467DB94D4AF4
:103E3800936D23F44033D4F8A0100B43936597E7B0
:103E4800022104F12400FFF731FB0546EEE72E4678
:103E58008EE7444AD36A43F40033D3627DB9414ABA
:103E6800536D23F44013D4F884100B43536590E743
:103E7800012104F12400FFF719FB0546EEE72E4661
:103E880087E7384AD36A43F40033D3626DB9354AB9
:103E9800D36C23F48033E16C0B43D36485E70221B0
:103EA800201DFFF77DFA0546F0E72E467DE7022143
:103EB80004F12400FFF7FAFA00283FF47AAF01264C
:103EC80077E7002B87D00126236813F4801F06D0DC
:103ED800244A136D23F00043216F0B4313652368B5
:103EE80013F0805F07D01F4A136923F48043D4F886
:103EF800B4100B431361236813F4001F06D0194A4A
:103F0800136D23F08073A16E0B431365236813F0C0
:103F1800804F09D0134B1A6922F400421A611A69BA
:103F2800D4F8B8100A431A612368002B1CDB2368F5
:103F380013F4000F07D00B4A536D23F44003D4F851
:103F480088100B43536506B101263046F8BD01269B
:103F5800BAE7044AD36A43F40033D3623BE72E46F8
:103F6800B2E700BF00440258034AD36C23F0405321
:103F7800216D0B43D364DAE70044025808B5FFF714
:103F8800C9F9054B1B6AC3F30213044AD35C03F057
:103F98001F03D84008BD00BF00440258EC76000853
:103FA8002DE9F0410446864B9D6A9E6AC6F30536A4
:103FB800D86AC0F30010DB6BC3F3CC0303FB00F03B
:103FC800FCF73CFA002E00F0F58005F003050746E3
:103FD800012D79D0022D00F0CB800DB33046FCF7CF
:103FE8002DFA01467748FCF735FB0546744B986B6C
:103FF800C0F30800FCF722FA06464FF06451384631
:10400800FCF774FA01463046FCF768F94FF07E5128
:10401800FCF764F901462846FCF768FA054674E09F
:10402800674B1B6813F0200F2CD0DFF89481D8F869
:104038000030C3F3C1036448D840FCF7FFF90546D4
:104048003046FCF7FBF901462846FCF703FB05461A
:10405800D8F83800C0F30800FCF7F0F906464FF02E
:1040680064513846FCF742FA01463046FCF736F907
:104078004FF07E51FCF732F901462846FCF736FA34
:10408800054642E03046FCF7D9F901464F48FCF7AF
:10409800E1FA05464A4B986BC0F30800FCF7CEF9E5
:1040A80006464FF064513846FCF720FA0146304680
:1040B800FCF714F94FF07E51FCF710F90146284639
:1040C800FCF714FA054620E03046FCF7B7F901463C
:1040D8003C48FCF7BFFA0546394B986BC0F308001B
:1040E800FCF7ACF906464FF064513846FCF7FEF988
:1040F80001463046FCF7F2F84FF07E51FCF7EEF837
:1041080001462846FCF7F2F905462D4EB06BC0F380
:104118004620FCF793F94FF07E51FCF7DFF8014693
:104128002846FCF797FAFCF731FB2060B06BC0F328
:104138000640FCF783F94FF07E51FCF7CFF80146B3
:104148002846FCF787FAFCF721FB6060B06BC0F3E8
:104158000660FCF773F94FF07E51FCF7BFF8014693
:104168002846FCF777FAFCF711FBA060BDE8F08160
:104178003046FCF763F901461548FCF76BFA05462B
:104188000F4B986BC0F30800FCF758F906464FF040
:1041980064513846FCF7AAF901463046FCF79EF808
:1041A8004FF07E51FCF79AF801462846FCF79EF935
:1041B8000546AAE7002323606360A360D6E700BF33
:1041C800004402580024744A0090D0030024744C20
:1041D80020BCBE4B2DE9F0410446864B9D6A9E6A81
:1041E800C6F30556D86AC0F300205B6CC3F3CC0352
:1041F80003FB00F0FCF722F9002E00F0F58005F033
:1042080003050746012D79D0022D00F0CB800DB3B0
:104218003046FCF713F901467748FCF71BFA0546C8
:10422800744B186CC0F30800FCF708F906464FF009
:1042380064513846FCF75AF901463046FCF74EF807
:104248004FF07E51FCF74AF801462846FCF74EF934
:10425800054674E0674B1B6813F0200F2CD0DFF87D
:104268009481D8F80030C3F3C1036448D840FCF700
:10427800E5F805463046FCF7E1F801462846FCF724
:10428800E9F90546D8F84000C0F30800FCF7D6F86D
:1042980006464FF064513846FCF728F90146304687
:1042A800FCF71CF84FF07E51FCF718F80146284639
:1042B800FCF71CF9054642E03046FCF7BFF801461A
:1042C8004F48FCF7C7F905464A4B186CC0F308007D
:1042D800FCF7B4F806464FF064513846FCF706F987
:1042E80001463046FBF7FAFF4FF07E51FBF7F6FF29
:1042F80001462846FCF7FAF8054620E03046FCF768
:104308009DF801463C48FCF7A5F90546394B186C61
:10431800C0F30800FCF792F806464FF0645138469F
:10432800FCF7E4F801463046FBF7D8FF4FF07E5122
:10433800FBF7D4FF01462846FCF7D8F805462D4E72
:10434800306CC0F34620FCF779F84FF07E51FBF74C
:10435800C5FF01462846FCF77DF9FCF717FA2060EF
:10436800306CC0F30640FCF769F84FF07E51FBF75C
:10437800B5FF01462846FCF76DF9FCF707FA6060BF
:10438800306CC0F30660FCF759F84FF07E51FBF72C
:10439800A5FF01462846FCF75DF9FCF7F7F9A06090
:1043A800BDE8F0813046FCF749F801461548FCF7AE
:1043B80051F905460F4B186CC0F30800FCF73EF89E
:1043C80006464FF064513846FCF790F801463046EF
:1043D800FBF784FF4FF07E51FBF780FF014628462C
:1043E800FCF784F80546AAE7002323606360A3600E
:1043F800D6E700BF004402580024744A0090D00356
:104408000024744C20BCBE4B2DE9F0410446864B79
:104418009D6A9E6AC6F30516D86A00F001005B6BB8
:10442800C3F3CC0303FB00F0FCF708F8002E00F000
:10443800F58005F003050746012D79D0022D00F01F
:10444800CB800DB33046FBF7F9FF01467748FCF700
:1044580001F90546744B186BC0F30800FBF7EEFF33
:1044680006464FF064513846FCF740F8014630469E
:10447800FBF734FF4FF07E51FBF730FF014628462B
:10448800FCF734F8054674E0674B1B6813F0200FFF
:104498002CD0DFF89481D8F80030C3F3C103644806
:1044A800D840FBF7CBFF05463046FBF7C7FF014670
:1044B8002846FCF7CFF80546D8F83000C0F30800C6
:1044C800FBF7BCFF06464FF064513846FCF70EF880
:1044D80001463046FBF702FF4FF07E51FBF7FEFE28
:1044E80001462846FCF702F8054642E03046FBF74D
:1044F800A5FF01464D48FCF7ADF805464A4B186B39
:10450800C0F30800FBF79AFF06464FF0645138469F
:10451800FBF7ECFF01463046FBF7E0FE4FF07E511B
:10452800FBF7DCFE01462846FBF7E0FF054620E0E6
:104538003046FBF783FF01463E48FCF78BF80546FB
:10454800394B186BC0F30800FBF778FF06464FF0AD
:1045580064513846FBF7CAFF01463046FBF7BEFEFA
:104568004FF07E51FBF7BAFE01462846FBF7BEFF27
:1045780005462D4E306BC0F34620FBF75FFF4FF02A
:104588007E51FBF7ABFE01462846FCF763F8FCF7C3
:10459800FDF82060306BC0F30640FBF74FFF4FF08B
:1045A8007E51FBF79BFE01462846FCF753F8FCF7C3
:1045B800EDF86060306BC0F30660FBF73FFF4FF02B
:1045C8007E51FBF78BFE01462846FCF743F8FCF7C3
:1045D800DDF8A060BDE8F0813046FBF72FFF01460B
:1045E8001548FCF737F805460F4B186BC0F3080061
:1045F800FBF724FF06464FF064513846FBF776FF79
:1046080001463046FBF76AFE4FF07E51FBF766FE27
:1046180001462846FBF76AFF0546AAE70023236000
:104628006360A360D6E700BF004402580024744CBE
:104638000090D0030024744A20BCBE4B00B58BB058
:10464800B0F5807F20D0B0F5007F71D0B0F5806FD5
:1046580000F0C880B0F5006F00F02181B0F5805FF0
:1046680000F08281B0F5002F00F0DB81B0F5803FCB
:1046780000F01F82B0F5804F00F03982B0F5004F8E
:1046880000F084820020B2E2954B1B6D03F0070313
:10469800042B00F2A382DFE803F005101B032600B9
:1046A8009048A4E28E4B186810F0007000F09F82CA
:1046B80007A8FFF7A9FE089899E2894B186810F037
:1046C800006000F0948204A8FFF76AFC04988EE268
:1046D800834B186810F0005000F0898201A8FFF79A
:1046E80079FD019883E27E4AD36C03F04053126847
:1046F80012F0040F07D033B9794B1B68C3F3C10319
:104708007948D84073E2764A126812F4807F03D061
:10471800B3F1805F00F06482714A126812F4003FBE
:1047280000F06082B3F1005F00F05E8200205EE27C
:104738006B4B1B6D03F4E073802B33D015D9C02B62
:1047480000F05482B3F5807F1FD1654AD36C03F023
:104758004053126812F0040F2FD073BB604B1B68D4
:10476800C3F3C1036048D84041E283B1402B0AD16A
:104778005B4B186810F0006000F0398204A8FFF75E
:104788000FFC049833E2002031E200202FE2544B62
:10479800186810F0007000F02A8207A8FFF734FEAE
:1047A800089824E24E4B186810F0005000F01F8261
:1047B80001A8FFF70FFD019819E2494A126812F49F
:1047C800807F03D0B3F1805F00F01482444A1268FE
:1047D80012F4003F00F01082B3F1005F00F00E8287
:1047E800002004E23E4B9B6D03F46003B3F5800F99
:1047F80035D016D9B3F5C00F00F00282B3F5000F1B
:1048080020D1374AD36C03F04053126812F0040FDA
:1048180030D07BBB324B1B68C3F3C1033248D8404E
:10482800E5E18BB1B3F5001F0AD12D4B186810F0E4
:10483800006000F0DC8104A8FFF7B2FB0498D6E121
:104848000020D4E10020D2E1254B186810F0007058
:1048580000F0CD8107A8FFF7D7FD0898C7E1204BE6
:10486800186810F0005000F0C28101A8FFF7B2FCF0
:104878000198BCE11A4A126812F4807F03D0B3F1A0
:10488800805F00F0BF81164A126812F4003F00F002
:10489800BB81B3F1005F00F0B9810020A7E1104BA4
:1048A8009B6D03F0E063B3F1007F3DD01ED9B3F1F7
:1048B800407F00F0AD81B3F1806F28D1084AD36CF6
:1048C80003F04053126812F0040F38D0002B36D191
:1048D800034B1B68C3F3C1030348D84087E100BFFB
:1048E800004402580080BB000090D0038BB1B3F1A4
:1048F800807F0AD1994B186810F0006000F077812A
:1049080004A8FFF74DFB049871E100206FE1002037
:104918006DE1924B186810F0007000F0688107A8EC
:10492800FFF772FD089862E18C4B186810F0005090
:1049380000F05D8101A8FFF74DFC019857E1874A17
:10494800126812F4807F03D0B3F1805F00F06281B7
:10495800824A126812F4003F00F05E81B3F1005FF2
:1049680000F05C81002042E17C4B1B6D03F4E043C6
:10497800B3F5005F35D016D9B3F5405F00F050812C
:10498800B3F5804F20D1754AD36C03F040531268B9
:1049980012F0040F30D07BBB704B1B68C3F3C1030C
:1049A8006F48D84023E18BB1B3F5805F0AD16B4BD8
:1049B800186810F0006000F01A8104A8FFF7F0FAF8
:1049C800049814E1002012E1002010E1634B1868FC
:1049D80010F0007000F00B8107A8FFF715FD08988C
:1049E80005E15E4B186810F0005000F0008101A846
:1049F800FFF7F0FB0198FAE0584A126812F4807F3A
:104A080003D0B3F1805F00F00D81544A126812F4AC
:104A1800003F00F00981B3F1005F00F0078100203A
:104A2800E5E04E4B9B6D03F44033B3F5803F10D067
:104A3800B3F5003F18D00BB10020D8E0474B1868F9
:104A480010F0006000F0D38004A8FFF7A9FA0498DA
:104A5800CDE0424B186810F0005000F0C88001A863
:104A6800FFF7B8FB0398C2E03C4AD36C03F040530D
:104A7800126812F0040F07D033B9384B1B68C3F320
:104A8800C1033748D840B2E0344A126812F4807F34
:104A980003D0B3F1805F00F0CB80304A126812F483
:104AA800003F00F0C780B3F1005F00F0C580002030
:104AB8009DE02A4BDB6C13F4803302D063B90020ED
:104AC80095E0264B186810F0007000F0908007A859
:104AD800FFF79AFC08988AE0204B186810F00060ED
:104AE80000F0858004A8FFF75BFA06987FE01B4B6F
:104AF8009B6D03F0E043B3F1405F35D015D8B3F1B7
:104B0800805F21D0B3F1005F09D1144B186810F011
:104B180000506CD001A8FFF75DFB029867E013B95D
:104B2800FFF72CFA63E0002061E0B3F1804F26D054
:104B3800B3F1A04F06D1094B186810F4003056D0D5
:104B4800084854E0002052E0044B186810F0006058
:104B58004DD004A8FFF724FA059848E0004402580D
:104B68000090D00340787D01344B186810F00400A1
:104B78003DD01B68C3F3C1033148D84037E02F4B01
:104B8800186810F4807032D02E4830E02B4B1B6D23
:104B980003F04053B3F1805F0CD0B3F1005F13D042
:104BA8000BB1002023E0254B186810F400301ED00C
:104BB80025481CE0214B186810F0007017D007A892
:104BC800FFF722FC089812E01C4B186810F00060F0
:104BD8000DD004A8FFF7E4F9059808E0002006E0E6
:104BE800184804E0002002E0174800E017480BB01E
:104BF8005DF804FB1348FAE70020F8E71248F6E7E7
:104C08001248F4E70F48F2E70020F0E70E48EEE715
:104C18000E48ECE70B48EAE70020E8E70A48E6E731
:104C28000A48E4E70748E2E70020E0E70648DEE74D
:104C38000448DCE70020DAE70348D8E700440258D4
:104C48000090D00300093D0040787D010080BB0042
:104C580070B582B0044600230193006802F036F96B
:104C6800054610B1284602B070BD206802F006FC67
:104C780038B90123E363E36B012B0BD02E4628469A
:104C880014E00023E363206802F020F90028F2D042
:104C98000546E7E70021206802F03BFA0028EDD03E
:104CA8004FF08055DEE7019B01330193019A4FF6DF
:104CB800FE739A4213D896B90021206802F029FAA7
:104CC800C0B91149206802F025FB0646A0B90021A9
:104CD800206802F0E6F8C30FE5D01E46E3E7019A24
:104CE8004FF6FE739A420AD810F080430AD0012387
:104CF800A363B7E70546B5E74FF08055B2E74FF035
:104D08008075AFE71D46ADE7000010C170B5446A75
:104D1800836A1F2B15D870BD306802F09BF820708D
:104D2800C0F307236370C0F30743A370000EE0705D
:104D380004340135072DEFD97462B36A203BB3629E
:104D4800E9E706460025F5E770B582B0C469036A4D
:104D58001F2B1CD802B070BD23780193627843EAF8
:104D680002230193A27843EA02430193E27843EADB
:104D780002630193043401A9306802F06EF801352A
:104D8800072DE9D9F461336A203B3362E2E706462E
:104D98000025F5E7F0B587B005460E46FCF784FD1B
:104DA80007460021286802F07CF810F0007F64D1E3
:104DB8004021286802F04EF9034610B16A6B6A6315
:104DC8005DE0696C0904286802F0A3F9034610B194
:104DD8006A6B6A6353E04FF0FF33009340230193FB
:104DE8006023029302230393002304930123059372
:104DF8006946286802F058F8286802F0EEF9034678
:104E080080B16A6B6A633AE0286802F023F846F8D2
:104E1800040B0134072CF7D9FCF746FDC01BB0F191
:104E2800FF3F2FD02B685C6B14F4957404D15B6B37
:104E380013F4004FF0D0EDE75A6B12F0080F24D1AD
:104E48005A6B12F0020F22D15B6B13F0200F20D1A6
:104E58002868436B13F480530CD001F0FBFF46F82D
:104E6800040BFCF721FDC01BB0F1FF3FF0D14FF060
:104E7800004304E0084A826301E04FF400631846E7
:104E880007B0F0BD4FF00043F9E70823F7E7022326
:104E9800F5E72023F3E700BF3A0F0018F0B589B013
:104EA80004460F46FCF700FD0546002300930193D6
:104EB8000821206802F0CEF8064610B1304609B045
:104EC800F0BD616C0904206802F023F90646002849
:104ED800F4D14FF0FF330293082303933023049354
:104EE80002230593002306930123079302A9206850
:104EF80001F0DAFF206802F03EF9064630B1DDE73E
:104F0800FCF7D2FC431BB3F1FF3F46D02068426B4D
:104F180040F22A531A420ED1436B13F4002FEFD1FB
:104F2800002EEDD101F096FF0090206801F092FF6D
:104F380001900136E4E7436B13F0080F24D1436B6B
:104F480013F0020F23D1466B16F0200622D1144B22
:104F58008363019A130203F47F0343EA0263110A8D
:104F680001F47F410B4343EA12633B60009A13024A
:104F780003F47F0343EA0263110A01F47F410B4300
:104F880043EA12637B6099E70826866396E7022660
:104F9800866393E72026866390E74FF000468DE707
:104FA8003A0F001810B582B0044600210091019113
:104FB800006801F076FF10F0007F13D169462046A3
:104FC800FFF76CFF80B9019B13F4802F0ED0616C42
:104FD8000904206802F09DF830B90221206802F027
:104FE800B1F801E04FF4006002B010BD4FF08060EE
:104FF800FAE710B582B004460021009101910068DB
:1050080001F04FFF10F0007F13D169462046FFF7EB
:1050180045FF80B9019B13F4803F0ED0616C0904F1
:10502800206802F076F830B90021206802F08AF88A
:1050380001E04FF4006002B010BD4FF08060FAE765
:1050480070B581B104460E46416C0904006802F04F
:10505800ABF8054608B1284670BD0021206801F06C
:1050680020FF3060F7E74FF00065F4E770477047BE
:1050780070470000C36D9B0F0B70C36DC3F3836350
:105088004B7090F85F3003F003038B7090F85E303C
:10509800CB7090F85D300B7190F85C304B71036EFB
:1050A8001B0DCB80B0F8623003F00F030B72036E58
:1050B800C3F3C0334B72036EC3F380338B72036E3A
:1050C800C3F34033CB72036EC3F300330B73002377
:1050D8004B73836B002B40F08680026E40F6FC73A6
:1050E80003EA8203426E43EA92730B61436EC3F391
:1050F800C2630B7590F8673003F007034B75436E76
:10510800C3F342538B75436EC3F38243CB75436E2F
:10511800C3F3C2330B760B69013383640A7E02F052
:1051280007020232934083640A7A02F00F0C0122CC
:1051380002FA0CF2C264520A02FB03F303654FF44D
:1051480000734365436EC3F380334B76436EC3F3FA
:10515800C6138B76436E03F07F03CB76836EDB0F2B
:105168000B77836EC3F341734B77836EC3F382630C
:105178008B77836EC3F38353CB77836EC3F340532C
:1051880081F82030002381F82130B0F86A2002F03D
:10519800010281F82220826EC2F3C03281F82320F6
:1051A800826EC2F3803281F82420826EC2F34032CC
:1051B80081F82520826EC2F3003281F82620826EA3
:1051C800C2F3812281F82720826EC2F3012281F87E
:1051D8002820826EC2F3460281F82920012281F834
:1051E8002A2018467047012B11D1036E1B0403F4C3
:1051F8007C13B0F8662013430B610B6901339B02E3
:10520800836403654FF40073C36443659AE70368D6
:10521800054A9A63436B43F080534363012380F844
:1052280030301846704700BFFF0FE01F10B58CB034
:1052380004460123ADF80230006801F019FE002889
:1052480057D0A36B032B33D1A36B032B49D1A36B8B
:10525800032B1CD0BDF8021061640904206802F019
:105268001BF8002847D10021206801F01AFEE065EC
:105278000421206801F015FE20660821206801F04D
:1052880010FE60660C21206801F00BFEA066042168
:10529800206801F006FE000D206401A92046FFF7F2
:1052A800E9FE50BB616C0904206801F019FF22E097
:1052B800206801F0DBFFF0B90021206801F0F1FD62
:1052C800E0660421206801F0ECFD206708212068D1
:1052D80001F0E7FD60670C21206801F0E2FDA0679E
:1052E800B2E70DF10201206802F07CF80028AED088
:1052F80001E04FF080600CB010BD4FF08050FAE72D
:1053080070B588B00446002303930493059306936D
:105318004FF48030FFF792F938B9012084F8300053
:105328004FF00063636308B070BD0646050A224B60
:10533800A3FB05352D09079508AB13E903008DE894
:10534800030003AB0ECB206801F06CFD206801F070
:1053580089FD6D00B6FBF5F5184EB6FBF5F5681C32
:10536800FCF7A8FA2046FFF773FC024630B101208B
:1053780084F83000636B13436363D4E72046FFF778
:1053880055FF024630B1012084F83000636B1343A7
:105398006363C8E74FF40071206801F05BFE08B949
:1053A8000020C0E7236806499963636B034363637E
:1053B800012084F83000B6E7598B4F011021010015
:1053C800FF0FE01F30B591B005460C466946FFF760
:1053D800E1FCC0B12B682A4999636B6B03436B638B
:1053E800012485F830404FF40071286801F032FE3E
:1053F80030B12A68224991636863012485F83040F6
:10540800204611B030BD009AC2F381132370C2F355
:1054180040136370130A23F0FF0343EA12639BB23D
:105428006380019A130203F47F0343EA0263110ABB
:1054380001F47F410B4343EA12636360029BDAB2D3
:105448002272C3F307226272C3F30352A2721B0CC7
:10545800039AD1B223F0FF030B43A381C2F3852340
:10546800A373C2F30123E373C2F30313237402F09B
:105478000F0262749DF81330A3740024B3E700BFD1
:10548800FF0FE01F30B589B004460D46032380F8AE
:105498003030836B032B1CD0B1F5004F08D0B1F529
:1054A800804F0AD079B1436B43F00063436314E043
:1054B800436B43F0805343630FE0FFF773FD636B67
:1054C8000343636309E0FFF794FD636B034363637E
:1054D80003E0436B43F080534363636BB3B12368CA
:1054E800394A9A6301254FF40071206801F0B2FD32
:1054F80030B1236834499963636B034363630125BF
:10550800012384F83030284609B030BD4FF480308C
:10551800FFF794F80246002850D063680393A36805
:1055280004930595236906936169284BA3FB02033D
:10553800180EB1EB136F0CD3079108AB13E90300F6
:105548008DE8030003AB0ECB206801F06BFC00254F
:10555800C9E7A36DB3F5007F08D0B3F5807F07D006
:1055680011BB1B4B9A421DD90790E6E70791E4E768
:1055780051B9184B9A4205D9144BA3FB02235B0E71
:105588000793DAE70791D8E74B00B2FBF3F311482A
:10559800834205D90D4BA3FB02235B0E0793CCE78F
:1055A8000791CAE70791C8E74B00B2FBF3F2084B33
:1055B8009A4201D90790C0E70791BEE7636B43F0B1
:1055C8000063636301258EE7FF0FE01F893BE65503
:1055D80040787D0180F0FA0210B582B004460023BD
:1055E800019301A9FFF72CFD10B1636B03436363BB
:1055F8000198C0F3432002B010BD70B586B00028F2
:1056080054D0044690F8303053B1032384F8303036
:105618002046FFF775FE38B10125284606B070BD53
:105628000376FBF789FEF0E701A92046FFF7CAFEDB
:1056380000283DD19DF81430DAB29DF81530DBB260
:10564800A16B01290BD001290FD00023A365E168C4
:105658002046FFF717FF054658B10125DDE713433C
:10566800F1D04FF40073A365F1E74FF48073A3659D
:10567800EDE7FCF719F906462046FFF7ADFF0428C9
:105688000DD0FCF711F9801BB0F1FF3FF4D14FF0BA
:1056980000436363012384F830300325BDE700230A
:1056A8006363E362012384F83030B6E70125B4E789
:1056B8000125B2E7704770477047704738B5044610
:1056C800C56A03685A6B12F4004F02D015F0080F30
:1056D8002AD15A6B12F4807F67D04FF480729A6394
:1056E8002268D16B7E4B0B40D3632268D36B23F0C7
:1056F8008053D3632268D36823F04003D36015F046
:10570800080F25D015F0220F11D12368754A9A6326
:10571800012384F830300023E36215F0030F13D01F
:105728002046FFF7A4FC01E0FFF7F0FA38BD206837
:1057380001F0AAFC03460028E7D0626B13436363B9
:105748002046FFF795FCE0E72046FFF78FFCEDE7E2
:1057580015F0800FEAD02268002393622268D36292
:105768002268136515F0220F0ED1012384F830301A
:105778000023E36215F0300F13D115F0030FD5D0D5
:105788002046FFF774FCD1E7206801F07DFC034652
:105798000028EAD0626B134363632046FFF768FC76
:1057A800E3E72046FFF762FCE7E75A6B12F4804F05
:1057B80002D015F0080F62D15A6B12F03A0F6BD075
:1057C8005A6B12F0020F03D0626B42F0020262635E
:1057D8005A6B12F0080F03D0626B42F00802626342
:1057E8005A6B12F0200F03D0626B42F02002626302
:1057F8005A6B12F0100F03D0626B42F01002626312
:10580800384A9A632268D36B23F49D73D363226862
:10581800D36823F04003D3602268D36A43F400536B
:10582800D3622268D36843F08003D360206801F014
:105838002BFC636B034363632268D36823F0800304
:10584800D36023684FF400629A6315F0080F1AD1E9
:1058580015F0800F3FF46AAF636B002B3FF466AF1F
:105868002268D36B23F08053D363236800221A6520
:10587800012384F830302046FFF7FAFB56E720462C
:10588800FFF762FA52E7012384F830300023E3621D
:105898002046FFF7EDFB49E75A6B12F0805F3FF4B3
:1058A80045AF4FF080529A6323681B6D13F0040FC5
:1058B8000AD115F0200F03D02046FFF7FEFE35E78A
:1058C8002046FFF7F8FE31E715F0200F03D02046F9
:1058D800FFF7F2FE2AE72046FFF7ECFE26E700BFB7
:1058E800C53EFFFF3A0F001808B338B50D46044609
:1058F80090F82C30B3B1022384F82C30214651F8AB
:10590800040B01F0DDF962682946206801F012FAFB
:10591800084A136843F000431360012384F82C30CD
:10592800002038BD80F82D30FBF7C6F9E3E70120E9
:10593800704700BF00400052704703689B6913F02E
:10594800010F00D1704710B50446FFF7F5FF226834
:10595800536943F00103536110BD0000F0B4036ABA
:1059680023F001030362036A466884691F4A2240E0
:105978000D68154323F002038C6823431C4A1D4C11
:10598800A04218BF90420CBF012200220CD004F59F
:105998008044A04214BF00240124174FB84203D00A
:1059A80014B9164CA04205D123F00803CC68234350
:1059B80023F004035AB9124A904214BF002201226C
:1059C8000D4CA04203D012B90C4A904207D126F4DC
:1059D800407C4A6942EA0C0C8E6946EA0C0646602D
:1059E80085614A6842630362F0BC70478CFFFEFF22
:1059F800000001400004014000400140004801400F
:105A08000044014070B4036A23F480730362036A9C
:105A18004568C26922F073020E68164323F40073C6
:105A28008A6843EA0223164A164CA04218BF9042DD
:105A38000CBF0122002206D123F40063CC6843EA9C
:105A4800042323F480635AB90F4A904214BF0022FA
:105A580001220E4CA04203D012B90D4A904207D140
:105A680025F4405C4A694CEA021C8D694CEA05152C
:105A78004560C6614A68C263036270BC704700BF74
:105A88000000014000040140004401400040014082
:105A98000048014070B4036A23F480530362036A28
:105AA8004468C26922F4E6420D6842EA052223F4FA
:105AB80000538D6843EA05330F4E104DA84218BFB6
:105AC800B0420DD005F58045A84214BF0025012538
